:10000000A8420020D9910000D5910000D5910000B0
:1000100000000000000000000000000000000000E0
:10002000000000000000000000000000D59100006A
:100030000000000000000000D5910000D5910000F4
:10004000D5910000D591000051760000917100001B
:10005000D5910000D5910000D5910000D591000008
:10006000817A0000917A0000A17A0000B17A000044
:10007000C17A0000D17A0000D5910000D59100002E
:10008000D5910000BD8D0000CD8D00000000000066
:1000900000000000DD8D0000D5910000D59100002A
:1000A00000000000D59100000000000000000000EA
:1000B0000000000000000000000000000000000040
:1000C0000000000000000000000000000000000030
:1000D0000000000000000000000000000000000020
:1000E0000000000000000000000000000000000010
:10610000070001002E040020000000000000000035
:10611000060032006C220020000000000000000099
:10612000050001000F00002000000000000000003A
:106130000400010011000020000000000000000029
:106140000300080014000020000000000000000010
:1061500002000200F8200020000000000000000003
:10616000940601000600014010B5064C2378002B70
:1061700007D1054B002B02D0044800E000BF0123EB
:10618000237010BD9C000020000000007408010076
:10619000084B10B5002B03D00749084800E000BFAA
:1061A00007480368002B00D110BD064B002BFBD025
:1061B0009847F9E700000000A000002074080100E3
:1061C0007408010000000000F0B5002A24D0002867
:1061D00022D04C00A3421FDB0139C9B207291BD8CA
:1061E0000400013140180F2704E0737001340232BB
:1061F000844211D02378390019401B091D00303525
:10620000092B01D957331D00160015700B003033D0
:106210000929EAD92733E8E7F0BD0300413B052B04
:1062200009D90300613B052B08D93038C0B20928D1
:1062300003D9002001E03738C0B270475738C0B2E8
:10624000FBE7FFFF70B545780078064B9847002DB7
:1062500006D00301DCB22800024B98472018C0B2D8
:1062600070BDC0461B62000010B5074B1B78002BA9
:1062700004D105210548064B984710BD0721054864
:10628000034B9847F9E7C046F800002008FE0000DD
:106290004195000000FE000010B5074B1B78002B55
:1062A00004D105210548064B984710BD0721054834
:1062B000034B9847F9E7C046F80000203CFE000079
:1062C0004195000034FE000010B50848084B1860E6
:1062D000084B18600023084A1360084A1360084AF4
:1062E000136096220021074B984710BDD01C002058
:1062F000741D00206C1D00207C1D0020681D0020E6
:10630000701D00201DEC0000F0B5A5B0D24B1C683C
:106310002378633BDAB21B2A01D900F023FC9300F7
:10632000CE4AD3589F462100CD48CE4B98470028EF
:1063300075D1CD4B1B78002B2CD0CC4B1C68210089
:10634000CB48C84B9847002827D02100C948C54BE7
:106350009847002843D1C84B1868C84B98478723F3
:1063600002AA944663441870022830D8C44B984758
:10637000872302AA944663441B78022219009143A2
:106380001DD10021BF4A1170022B1CD00022BE4B30
:106390001A70E7E3BD4B9847E4E3B94B9847B64F13
:1063A0003D682800B54EB0470400A81C38602402A0
:1063B000A4B2B74D2C80B04724182C80D2E3012220
:1063C000B04B1A70E2E70122AF4B1A70CAE3AF4B31
:1063D00098470023AB4A1370AB4A1370C2E3210005
:1063E000AC48A04B9847002816D1A34B1868A34B84
:1063F0009847872302AA9446634418700A2802D952
:10640000A24B9847AEE39E4B98479B4B18689B4B1B
:106410009847A14B1870A5E39C4B9847A2E39B4B70
:1064200098479FE321009D488E4B9847002800D055
:1064300041E28E4B1C68210099488A4B98470028FE
:1064400036D021009348874B9847002863D021001D
:106450008748844B9847002800D1C6E0824B1B78C0
:10646000002B14D121008F487E4B9847002800D183
:106470002CE121008C487B4B9847002800D16AE131
:1064800021008A48774B9847002800D1A5E12100D8
:106490008748744B9847002800D009E2854B1B7849
:1064A000002B00D1FFE112218348844B984759E328
:1064B000642200210AA8824B98477E4B1D780AACC3
:1064C000002D06D00A2222700125212402AB9C4611
:1064D00064446123237003336370A3700E33E3704D
:1064E000523B2371621D0F3B08217648764EB04720
:1064F000704B1B78002B09D00A2363750333A375F7
:106500001735E9B20AA86D4B98472BE30D23637545
:106510001635E9B2F6E7642200210AA8684B9847CD
:10652000644B1878002800D190E30AAB0A221A7055
:1065300059325A7005329A70073ADA700D321A7170
:106540005A71093A9A710732DA714C3A1A72524BFF
:106550001A781A2A00D99FE30924292302A98C4614
:10656000634421216144092A0ED90F2A29D9192A05
:1065700030D931250D7247324A720221872202AD8D
:10658000AC466244117007E030320A720121872262
:1065900002ADAC4662441170872202A98C46624467
:1065A00011785B180919C9B2002800D16BE30A22DF
:1065B0001A7003325A700231C9B20AA83F4B984789
:1065C000D0E257320A720121872202ADAC46624402
:1065D0001170E1E731250D7220324A7202218722C3
:1065E00002ADAC4662441170D6E7642200210AA8CD
:1065F000334B98472F4B1D780AAC002D06D00A224A
:1066000022700125212402AB9C4664447023237030
:106610000F3B63700D33A3704E3BE3701C4B1B8824
:1066200009A81A0A02704370221D05230221264E72
:10663000B047204B1B78002B09D00A232372033369
:1066400063720A35E9B20AA81C4B98478AE20D2307
:1066500023720935E9B2F6E76C1D002078FD0000D1
:1066600010FE000005F40000000000207C1D00204A
:1066700060FE000070FE0000681D00204562000002
:1066800069620000F9000020781D00209962000076
:106690000200002014FE00003400002054FE000020
:1066A000F8FD0000ACFE000024FE00001CFE00000F
:1066B000C4FE0000F800002088FE000041950000A4
:1066C0001DEC000014000020C961000064220021BC
:1066D0000AA8DB4B9847DB4B1D780AAC002D06D08F
:1066E0000A2222700125212402AB9C4664447223B5
:1066F0002370033B6370033BA370073BE370621D91
:10670000453B23710021673302A884466344197016
:10671000CD4B1B78002B03D00131872363441970C4
:1067200002230121872002AEB4466044C74EB04721
:10673000C44B1B78002B09D00A23E3710333237267
:106740000935E9B20AA8C24B98470BE20D23E37161
:106750000835E9B2F6E7642200210AA8B84B984749
:10676000B84B1D780AAC002D06D00A2222700125F4
:10677000212402AB9C466444632323700C33637072
:10678000013BA3700533E3700A3B2371113363713E
:10679000153BA371453BE371AE4B9847030087203F
:1067A00002AA9446604403702200083202230121A9
:1067B000A64EB047A34B1B78002B09D00A23A37227
:1067C0000333E3720C35E9B20AA8A14B9847C9E13B
:1067D0000D23A3720B35E9B2F6E79F4B18689F4B68
:1067E0009847872402AB9C4664442070994B984795
:1067F0002478A04246D9642200210AA8904B9847E9
:10680000904B19780AAB002906D00A221A70012190
:10681000212302AA9446634463221A700C325A70F0
:10682000013A9A70DA704E3A1A71A20012195200A7
:106830008B488218127AD20927D031225A71DD1D75
:10684000113A9A710731CCB2872302AA9446634465
:106850001B789800C0184000814BC01811232A00F3
:1068600008217A4EB047774B1B78002B15D00A23AE
:106870002B7403336B7421001231C9B20AA8744B14
:1068800098476FE1774B98476CE130225A71DD1DD4
:10689000103A9A710731CCB2D6E70D232B74210040
:1068A0001131C9B2EAE710216F48694B984759E1A5
:1068B0006C4B984756E16B4B984753E16B4B1B78F9
:1068C000002B00D03FE1210069486A4B984700281F
:1068D0002ED021006848674B9847002800D032E14D
:1068E000664B1D68002D00D12AE15B4B1E68002E0F
:1068F00000D125E1624B1B68002B00D120E128006C
:10690000604B9847C4B2872302AA944663441C7024
:106910003000524B984705900700631E012B15D994
:10692000042C50D0102C00D1C0E04E4B984719E1F8
:10693000554B98470122444B1A70544B1B789A4090
:10694000534B0A210020534CA0470BE12800434B36
:10695000984704003F4B984784421CD24A4B9847C3
:10696000002F1BD1464B1D682800464B98474A4ACA
:106970001378591C1170C2B2A10009194900384896
:106980000918464802900120019000932B0007301F
:10699000434CA047E6E0334B9847E3E0384B1B6895
:1069A0003D490A78501C0870A100091949002C487B
:1069B00009183A480290012001900092059A073088
:1069C000374CA047CEE00122524207AB1A8035492E
:1069D0002800284B9847002805D033492800254B2C
:1069E0009847002829D1284B9847002F14D1244BD1
:1069F0001C682000234B9847274A1378591C1170B4
:106A0000C2B226490291002101910093230007A9F7
:106A10000220234CA047A5E0194B1B681E490A78A9
:106A2000501C08701D490291002101910092059AA5
:106A300007A902201A4CA04794E00A4B984791E01E
:106A40001DEC0000F8000020711C0020C96100004E
:106A5000419500006DC00000681D002045620000E7
:106A60006C220020996200009CFE000000000020C3
:106A7000BCFE000005F40000B4FE00007C1D0020F8
:106A8000701D002019F4000069620000340000202D
:106A900061D9000091BF00006C1C00206DD800007F
:106AA00009C50000E8FD0000F0FD0000804B98479C
:106AB000804B1C682000804EB04707AD2870A01C9A
:106AC000B0476870201DB047A870A01DB047E8709F
:106AD00020000830B047287120000A30B0476871A4
:106AE00020000C30B047A87120000E30B047E8718C
:106AF000002F14D1714B1C682000714B9847714ACC
:106B00001378591C1170C2B26F4902910121019191
:106B10000093230007A908206C4CA04722E0674B94
:106B20001B6868490A78501C087067490291012166
:106B300001910092059A07A90820644CA04711E032
:106B4000634B98470EE0624B98470BE0614B1B7814
:106B5000002B05D121006048604B9847002805D0E4
:106B60005B4B98475E4B984725B0F0BD07AC0123BF
:106B70005B4223804E4B984700225A4B1A705A4B67
:106B800018785A4B0093002322000221584CA0474A
:106B9000E8E721005748514B984700280CD04D4B4F
:106BA0001B78002B05D1210053484C4B98470028F7
:106BB00007D0474B9847D5E73D4B98474F4B9847F1
:106BC000D0E73C4B18683C4B9847872402AB9C4667
:106BD000644420704A4B98472378834202D33C4B4D
:106BE0009847BFE7324B9847872302AA94466344ED
:106BF0001878444B9847B5E721004348374B9847EE
:106C0000002805D12A4B98470122404B1A70A9E76A
:106C10002F4B9847A6E721003D48304B9847002866
:106C200008D021003B482D4B9847002808D0284B1E
:106C3000984797E71E4B98470022264B1A7091E71A
:106C40001B4B98470022314B1A708BE70AAB63222B
:106C50001A7005325A70073A9A700D32DA701A714A
:106C6000093A5A7107329A714C3ADA711E4B1A7806
:106C70001A2A0DD9872302AA9446634419780CABCB
:106C80005B180831C9B20D221A700131C9B294E4FF
:106C900008240CAB0AA966E4872302AA944663443D
:106CA0001978292363445B180931C9B27FE4C046CF
:106CB000696200007C1D002045620000701D0020FC
:106CC00019F400006C1C00206DD8000009C50000FC
:106CD000996200000000002058FE000005F400004A
:106CE000C9620000711C00203400002061D900003E
:106CF000D1C3000080FE000078FE00009DCA0000A5
:106D00006DC0000091C400002CFE0000F8000020BF
:106D100044FE00004CFE000010B50D2807D02028CE
:106D200008D01B4A1368591C1160187010BD194B0C
:106D30009847FBE7184B1B68002B07D0174B1B68C5
:106D4000002B03D0164B1B68002BEAD1104A1368A6
:106D5000591C116000221A700F4B1B68002B0CD0BD
:106D60000E4B1B68002B0DD00D4B1B68002BDDD18B
:106D7000074B1A680A4B1A60D8E7054B1A68064B8E
:106D80001A60D3E7024B1A68044B1A60CEE7C0467C
:106D9000741D0020096300007C1D0020681D002078
:106DA000701D002010B5402200210248024B984778
:106DB00010BDC046901C00201DEC0000F0B5CE4672
:106DC000474680B583B04E4B1B78002B49D04D4DC4
:106DD0000A232B700124013572232B700D3B6B703D
:106DE000023BAB701333EB706A1D563B2B710021D5
:106DF0006B46D971444B1B78190702D502206946AE
:106E0000C8719B0705D06B46D91DDB790120034370
:106E10000B706B46DE1D0223012130003B4FB9464B
:106E2000B84720239846EB71374F7B7B33702A009D
:106E30000832022301213000C8474346AB723B7839
:106E40005A061BD52A000B325BB2002B0CDB2E4BF3
:106E50005868102308212D4EB0472B001B331B34DC
:106E600014E00024274DB7E7274B5868042302217C
:106E7000264EB0472B000F330F3407E06622EA722C
:106E80002A736A732B000F33AA730F345F1C2022FE
:106E90001A700134A4B200226B46DA711A4B1E7BC1
:106EA000002E13D039009A6800206B46DD1D00E0EB
:106EB000180013780B70431CDBB22B7001310132C8
:106EC000B342F5D1431CFF18E418A4B20C4B1B7855
:106ED000002B0ED10D233B700134A1B2C9B2094879
:106EE0000B4B98470B4B984703B00CBC9046994608
:106EF000F0BD0A233B7003337B700234A1B2EDE78F
:106F0000F8000020901C00203C210020C9610000F6
:106F100041950000A56D000010B50023064A1370CE
:106F20000121064A1170064A1370064A1370064B77
:106F30009847064B984710BDFA000020000000203B
:106F4000F8000020781D0020C9620000A56D000037
:106F500070B5144B1B78002B16D040211248134BF0
:106F6000984785B2002D0ED0114B1B78002B13D102
:106F70000D4C013DADB2013565190E4E2078B0477C
:106F80000134AC42FAD170BD0122064B1A700921BE
:106F900009480A4B9847E0E701000348074B984728
:106FA000E6E7C046FA000020B80000206D9500001A
:106FB000F8000020196D000064FE000041950000FB
:106FC000014B18787047C0460000002070B50020C3
:106FD000084B98470500084CFA218900A047074B49
:106FE000186007492800A047064B18600522064B89
:106FF0001A6070BDED8A000021DC00000400002052
:1070000040420F000800002010E000E030B5084BBF
:107010001C68084A002580214902013807D3002C4A
:10702000FBD05460956013680B42FCD0F5E730BD8F
:107030000800002010E000E00C4B1B68002B06D17C
:10704000EFF31083002B07D00022094B1A70074A78
:10705000136801331360704772B6BFF35F8F00226D
:10706000044B1A700132024B1A70F0E7FC0000204A
:10707000000100200C000020084B1A68013A1A6039
:107080001B68002B09D1064B1B78002B05D0012271
:10709000044B1A70BFF35F8F62B67047FC0000208C
:1070A000000100200C000020F0B5CE46474680B518
:1070B00083B001AC012666700027A77026702100FE
:1070C0000E20234DA847234B98468023DB014246E0
:1070D0009361267021001220A8478023DB02994685
:1070E00043464A469A612770667021000720A847E8
:1070F0006670A770267021005220A84721003E200C
:10710000A84721003F20A84721002F20A8472100A1
:107110001420A847104B4A469A61104B8022D20592
:107120009A61802212069A61802636029E6180232F
:107130005B0342469361277021005320A847084B08
:10714000DA691643DE6103B00CBC90469946F0BD87
:107150002D760000002800400029004080280040D3
:10716000000400401723002A01D0180070478B004C
:10717000064A9B58002B03D0834205D01D23F4E719
:10718000890088500023F0E70023EEE7841D0020EB
:1071900070B50022104B1A70002310491F25104EA5
:1071A0000D4C0AE00D4908E023780133DBB223706F
:1071B0000F2B10D800211F2BF4D9280018400122D2
:1071C000824048691042EFD04A619B009B59002BD6
:1071D000EAD09847E8E770BD801D002000240040F9
:1071E000841D0020064A137802210B4313700120EE
:1071F00053681942FCD153681842F9D17047C04610
:1072000000240040064A137802218B4313700120AA
:1072100053681942FCD153681842F9D17047C046EF
:107220000024004000B583B0174A516980239B00B9
:107230000B43536101A900230B700320134B9847A4
:107240000320134B9847134A137801210B43137003
:107250000131012053681942FCD153681842F9D119
:107260000C4A137810218B4313700B4B19004031DB
:10727000002204C38B42FCD10822084B1A60084B41
:10728000984703B000BDC04600040040C98B000011
:10729000598B000000240040841D002000E100E024
:1072A000E5710000002303604360012202728372D3
:1072B0000132C27243727047F0B583B005000C0012
:1072C0001C4B984701A900234B70CB7023790B709E
:1072D000237A8B702078184B984700211F2D00D8F7
:1072E000164907222A409200E77AA37A002B01D0A0
:1072F00008231F43EB089B00CB18D8690F26964044
:10730000B04397403A000243DA61637A002B0BD115
:107310008A690123AB40DB431B041B0C13408B61C8
:10732000074B984703B0F0BD8A690123AB40134374
:107330008B61F5E705720000C58C00000024004059
:10734000E571000010B51E4A936904210B43936157
:107350001C4B2022FF321A831A7D0523D20701D449
:10736000180010BD03781B02C02292001340417820
:10737000C901FF220A401343817849001E220A40B6
:107380001343C27892048021C9020A401343027950
:107390001204C02189020A4013430A4A53609368C9
:1073A0005B035B0F084908249C400C8093684B806A
:1073B00043780B71138BDB05DB0F1B01D0E7C04655
:1073C00000040040004000410401002030B5304A74
:1073D0001488538863438B420BD2802292012D4B39
:1073E000CB18934205D92C4C18232C4A8A18A24258
:1073F0000ED82B4B5C688022D20222435A60202296
:10740000FF321A831B7DDB0704D4254B5C60052308
:10741000180030BD452829D88300224AD3589F46FA
:107420001F4B1B8BDB0503D51D4B5C601023EFE767
:10743000890849001A4BD96103E089084900184BB3
:10744000D961FD2305001A3D1D4013D0A5231B0261
:107450001843134B1880190001220B7D1342FCD0F6
:10746000002D0FD00E4B5C600023D1E70C4B5C600D
:107470001723CDE70A4B59688022D2020A435A608B
:107480005B68E3E7064A536807490B405360E9E746
:107490000401002000C07FFFFF1F00000000C0FFAC
:1074A00000400041C8FE0000FFFFFBFFF8B52F4B76
:1074B0001C885B886343834207D22D4E18252D4BD1
:1074C000C318B34206D8012600E00026631E182523
:1074D000184201D02800F8BD013D9442FAD3264B52
:1074E0001B7D123DDB07F5D5244C234B1C801D0072
:1074F00001242B7D2342FCD02024FF341E4B1C830F
:10750000002A2CD0012305009D430023541EA446CD
:1075100009E0CF187F783F023C432C8002339BB2B6
:1075200002359A4204D9CC5C6345F2DBA4B2F4E79D
:107530000E4B1B790025002BCCD13F2ACAD8002E38
:1075400006D10022010004200D4B98470500C1E739
:10755000002201001C200A4B98470500BAE7034BA4
:107560001B790025002BEAD0B4E7C04604010020B7
:10757000FF1F00000000C0FF0040004144A5FFFFC6
:10758000CD73000010B5224A138852885A438242B4
:1075900007D2204C182220494118A14207D80124C3
:1075A00000E000249B00013B1822184201D010008B
:1075B00010BD1A4B1B7D133ADB07F8D5174B202261
:1075C000FF321A8380084000D861002C1BD0596814
:1075D0008022D2020A435A605A68114A1A800F491F
:1075E00001220B7D1342FCD0002C04D00B4A5368BF
:1075F0000C490B405360094B1A8B1C200240501E53
:1076000082419200D3E7084A044B1A80E7E7C0465C
:1076100004010020FF1F00000000C0FF00400041E7
:107620001AA5FFFFFFFFFBFF02A5FFFF00B583B018
:1076300001AB80221A700A785A704A789A708A7858
:10764000DA701900014B984703B000BDC58C0000EB
:10765000F8B5DE4657464E464546E0B52B4B1B680F
:107660009A461E68DB8E5246928E1A409046B28928
:10767000738913401AB2002A08DBFF271F402AD063
:10768000002401239946FE339B4614E043465B05E4
:1076900007D41F4BB3813CBC90469946A246AB46EB
:1076A000F8BD53461B6B9847F3E75B461D40B58119
:1076B0000134082CEFD023004D46A5402F42F4D0D2
:1076C0004246224149461142EFD002339B005246C6
:1076D0009B589847E9E7DA050AD54346DB0503D40A
:1076E00080235B00B381D6E753469B6A9847F7E750
:1076F0009B05D0D543469B0503D480239B00B381D3
:10770000C9E75346DB6A9847F7E7C046C41D002027
:107710000080FFFFF0B5DE4657464E464546E0B5D1
:1077200087B08046049116001F000022002300212C
:107730008B463F2401202100009601975C4603946C
:107740004446059413E02024641A0500E540A84649
:1077500014E0009C019D121BAB415C464D462C433E
:10776000A346039C45462C430394013925D320248A
:1077700064420C19E7D40500A540A84604008C40DB
:10778000A14692185B4114001D00059E4F463E40E5
:10779000B446049E47463E40B246664657463E4380
:1077A00003D00600264332002B00009C019D9D4221
:1077B000DBD8CED19442D8D8CBE7039B58461900EA
:1077C00007B03CBC90469946A246AB46F0BD10B50A
:1077D000490840230024814202D2180010BD1C0039
:1077E000091A631C9BB28842F9D94023FF2CF4D8B4
:1077F00014800023F1E7FFFFF0B583B00F001600FF
:1078000008AA117804004C434022BC4202D910005F
:1078100003B0F0BD002B14D1020008000021194C68
:10782000A04701003A0000230020174CA047002287
:107830000123121A8B41120C1B041A4332800022BE
:10784000E5E70022012BF9D10A00002300210D4CAD
:10785000A04702000B0000920193380000210A4C5F
:10786000A047050080239B0140229842CFD8790F82
:10787000F800009A019BA047EA00821AD2B2520394
:107880002A43DBE781DF00001577000010B582B0E6
:1078900004000E4B1B78002B07D0002905D10B4BA1
:1078A0005B78834210D01D200CE001A90C701120E0
:1078B000074B98471120074B9847044B5C700122F7
:1078C0001A70002002B010BD0020FBE70C01002060
:1078D000C98B0000598B00002C4B984226D00AD946
:1078E0002B4B98423AD02B4B984241D02A4B98428E
:1078F00024D0002070478423DB05984208D0274B12
:107900009842F6D102290DD003290DD00020F1E7CD
:10791000022903D0032903D00020EBE72048E9E740
:107920002048E7E72048E5E72048E3E7012903D0BE
:10793000002927D00020DDE71D48DBE7012907D01B
:10794000002921D0022905D0032905D00020D1E744
:107950001848CFE71848CDE71848CBE7022903D0ED
:10796000032903D00020C5E71548C3E71548C1E740
:10797000022903D0032903D00020BBE71248B9E74E
:107980001248B7E71248B5E71248B3E700080042CB
:107990000010004200040043000C004200040042BA
:1079A000030006000300070003001E0003001F0081
:1079B000030009000300110003001200030013007C
:1079C00003000E0003000F0003001800030019005D
:1079D000030008000300100030B587B00B4B6A4667
:1079E00032CB32C232CB32C2009B83420BD0012356
:1079F0009A0069465258824206D00133062BF7D1CD
:107A0000002007B030BD0023D8B2FAE7E0FF000045
:107A10007047FFFFF0B50A4B1B78002B0CD1094FC4
:107A2000094E0A4D0024DE515A1914600433182BF4
:107A3000F9D10122024B1A708000024BC150F0BDF7
:107A40000E01002010010020117A0000C81D002046
:107A500000B583B008236A461370013353700133B5
:107A600093700133D3700133137101335371034B9E
:107A700098476B46185603B000BDC046D979000040
:107A800010B5024B1B680020984710BD1001002064
:107A900010B5024B5B680120984710BD1001002013
:107AA00010B5024B9B680220984710BD10010020C2
:107AB00010B5024BDB680320984710BD1001002071
:107AC00010B5024B1B690420984710BD100100201F
:107AD00010B5024B5B690520984710BD10010020CE
:107AE000F0B5D6464F464646C0B58AB006000F00F0
:107AF000140031600B689B070AD40B680520DB0774
:107B000000D497E00AB01CBC90469946A246F0BD4E
:107B1000936A0593D36A0693136B0793536B089389
:107B200000250AE038009A4B98470EE00F231840D2
:107B3000814530D10135042D31D0E9B2AB0002AA24
:107B40000C201218D0580028ECD0431CF2D00104AD
:107B50000B0C9946000CC3B29C460023020605D4C8
:107B600063465B09DB018B4A904643441F22604613
:107B70000240981840300078824680205146C9075C
:107B8000D6D552089B1830331878C0B26346DB074D
:107B9000CCD50009CCE7002333601C20B2E71120CC
:107BA0007D4B984722780025012A26D06368A26879
:107BB0001343E26813432B43227C617C002901D0EC
:107BC00080210B43A17C002902D0802189020A4335
:107BD000E17C002902D0802189000A43217D00290F
:107BE00002D0802189010A433968022003438B4275
:107BF00017D0002333601C2084E704AA0100A06989
:107C0000664B984703001720002B00D07AE73B7B98
:107C1000DBB204AA127805309A4200D072E70C3524
:107C2000C4E77B689342E4D123787371237CB371FA
:107C3000002067E708005A4B9847052800D19FE0CD
:107C4000030012335749CD69012282402A43CA6199
:107C500009A92425625D0A70DBB201931800524B1A
:107C600098470198514B9847605D0021504B9847C9
:107C70002378012B19D03368984604AB80221A7000
:107C800000225A7001219970DA702378002B01D1FB
:107C900004AB9A70A36A0593E36A0693236B079378
:107CA000636B0893002705AD11E03B680C2213437A
:107CB0003B60E0E74046364B98470DE004A908706A
:107CC000000CC0B23B4B98470137042F07D0F9B2E4
:107CD000BB0058590028EDD0431CEFD1F4E72378BE
:107CE0007371237CB371A37CF371237D3372002203
:107CF00002ABDA802378012B2AD06368A268134391
:107D0000E2681343217C627C002A03D12A4A9278DC
:107D1000920701D580221343A27C002A02D0802240
:107D200092021143E27C002A02D080229200114389
:107D3000227D002A02D0802292011143424612681D
:107D400013434246136053680B4353600020D9E647
:107D50003068134B98471230C0B20F4B9847010060
:107D600002AB9A1DA0690D4B984703001720002B0A
:107D700000D0C7E602AB06331B7842461373BCE75C
:107D8000084A136A02210B431362182360E7C046B6
:107D9000D978000000280040ED8B0000CF7700006C
:107DA000D979000000040040C98B0000598B000005
:107DB0008D780000C58C00000020004110B544798A
:107DC0001523012C01D0180010BD047A0023002CCB
:107DD000F9D1002A58D04B78002B44D003681B7E81
:107DE000DB0710D40A78D1090023002904D15309F4
:107DF000DB012E498C4663441F21114001228A4039
:107E00009A610523DFE70A78D4090023002C04D106
:107E10005309DB01254CA44663441F24144001226E
:107E2000A2405A6103681A7ED20701D58A789A6205
:107E3000C2790023002AC6D102680421137E0B42B6
:107E4000FCD0117E00234907BDD5538B5B0701D5BC
:107E5000042353838379012B02D0936A0023B2E772
:107E6000936A0023AFE70A78D1090023002904D1DF
:107E70005309DB010D498C4663441F211140012247
:107E80008A405A6100239EE70A78D109002300291D
:107E900004D15309DB0105498C4663441F2111407D
:107EA00001228A409A6100238DE7C04600280040E5
:107EB000F0B5DE4657464E464546E0B591B0050062
:107EC0000C00160029600800C44B984702000528E2
:107ED0000DD007001237030021680520C90709D516
:107EE00011B03CBC90469946A246AB46F0BD18275F
:107EF0000123F1E7216817308907F1D4052A49D019
:107F0000B749C86901229A4013000343CB610FA906
:107F10002D239846F35C0B70FFB23800B14B9847A5
:107F20003800B14B98474346F05C0021AF4B98476F
:107F3000F37A6B712423F35CAB712523F35CEB7153
:107F4000F37E2B72337F6B722B6898461800A34B1D
:107F50009847052826D0123000220E2306A98C4609
:107F600063441A80328A02928023DB019A4200D154
:107F7000A7E019D9C023DB01029A9A4200D19BE005
:107F800080231B029A4200D023E10323069300239F
:107F9000079312E09249086A043A9A401300034397
:107FA0000B62B4E71820D7E780239B019A4200D0E8
:107FB0000FE1102306930F3B079333680593F36893
:107FC0009B4673690393337E04932623F35C9A469E
:107FD00073689946002B00D19BE080235B0599458F
:107FE00004D12723F35C002B00D180E0737E002BAB
:107FF00002D0B37E424693730E2306AA944663448E
:108000001B8842469381059B5A461343039A1343A8
:108010004A461343029F1F43049B1B021F435346C0
:108020005B071F432723F35C002B01D104331F435D
:10803000737E9B02327F52021343727F12021343FC
:108040002422B25C520413432522B25C120413436F
:10805000B17AF27A114319433389FF2B7DD0802204
:108060005204174319432C23F35C002B03D1604BBC
:108070009B789B0701D580231F432A68D369002B77
:10808000FCD1434659602A68D369002BFCD1434692
:108090001F600EAB80221A7000225A70DA709A703C
:1080A000336B0A93736B0B93B36B0C93F36B029369
:1080B0000D9300270AAE5EE008230693073B079363
:1080C0007BE733680593F3689B4673690393337EBC
:1080D00004932623F35C9A4673689946002B14D0C8
:1080E00080235B05994500D17BE7002020E0336ABF
:1080F0001F00C0B23F4B984701000E2206AB9C46C2
:10810000624438003C4B984712E008230693002352
:1081100007932723F35C002B0ED0069B0093079B4D
:108120000E2206A98C466244B16A306A334FB847C2
:10813000002800D0D4E659E7336A1F00C0B22D4BA7
:1081400098470100069B0093079B0E2206A88446D1
:1081500062443800294FB847EAE7F37E002B82D00B
:108160008023DB041F437EE72000254B984707E070
:108170000137042F0DD0F9B2BB0098590028F3D075
:10818000431CF5D00EA90870000CC0B21D4B9847D7
:10819000EEE70023EB602B616B61AB61EB612B625F
:1081A000AB626B620022EB85AB853033EA5401335E
:1081B000EA540133EA540133EA542868074B9847DC
:1081C00004001149114B9847A400114BE5500020C1
:1081D00086E61023069300230793EEE6D979000084
:1081E00000040040C98B0000598B00008D7800000E
:1081F00000200041ED8B0000CF770000F9770000F0
:10820000D9780000C58C0000F9830000157A0000C1
:10821000C81D0020C2791C23002A01D11800704714
:10822000C28D92B2173B002AF8D102681185022153
:10823000137E0B42FCD00023F0E782791C23002A36
:1082400001D118007047828D92B2173B002AF8D1F5
:108250000268107E4007F4D5538BDBB298061DD020
:10826000980703D5022353831833EAE7580703D549
:10827000042353831A33E4E7D80703D50123538338
:108280001233DEE7D80603D5102353833233D8E701
:108290009B0603D5202353832133D2E7138D0B8014
:1082A0000023CEE7F0B5CE46474680B583B0050043
:1082B00001911720002A04D103B00CBC90469946C6
:1082C000F0BDEB790530002BF6D02C68013A93B263
:1082D000994600260127204B984611E0731C9BB25B
:1082E000019A915D6A79012A17D089B21E0028008F
:1082F0001A4B98474B46013B9BB29946434513D0D6
:10830000237E3B42EAD1144B227E3A42E6D1012B36
:1083100019D0013B002BF7D1E0E70236B6B2019A43
:10832000D35C1B021943E2E7237E9B070DD40A4B63
:108330000221227E0A420AD1012B0AD0013B002BE6
:10834000F7D10020B8E71220B6E70020B4E70020FC
:10835000B2E71220B0E7C046FFFF00001582000020
:10836000F0B5D64600B584B0040001911720002A6C
:1083700003D104B004BC9246F0BDA3790530002BB4
:10838000F7D02668013A93B29A460025042719E0EF
:10839000002302AAD380911D2000154B9847002886
:1083A000E7D1691C89B202ABDB88019A5355627927
:1083B000012A14D00D005346013B9BB29A460D4B47
:1083C0009A45D6D0337E3B42E2D10A4B327E3A42C6
:1083D000DED1012B09D0013B002BF7D1D8E70235C4
:1083E000ADB21B0A019A5354E5E71220C1E7C0461B
:1083F0003B820000FFFF0000F8B58000624BC558CB
:108400002C68E369002BFCD1237EA67D1E4030231F
:10841000EB5C3122AF5C1F40F30722D5EB8D9BB2A2
:10842000002B1CD0AA6A1378DBB2511CA9626979AF
:1084300001290ED09BB2DB05DB0D2385EB8D013BC3
:108440009BB2EB85002B0CD1013323750133A3754F
:1084500007E0517809020B430232AA62EBE70123DD
:108460002375B30706D50223237500223133EA545E
:10847000FB071AD4730765D5AB8D9BB2002B5FD079
:10848000638BDBB21A0714D43F221340002B34D085
:108490009A0711D51A223223EA54303B63837B07B3
:1084A00050D528006B6998474CE02800EB68984746
:1084B000E0E737221340E9E75A0705D51E223223A9
:1084C000EA542E3B6383EAE7DA0705D51322322309
:1084D000EA54313B6383E2E7DA0605D542223223D0
:1084E000EA54223B6383DAE720221A42D7D02132B2
:1084F0003223EA54123B6383D1E7238DDB05DB0D86
:10850000DAB2696A0A706A6A511C6962697901297A
:1085100010D0AB8D013B9BB2AB85002B12D1043345
:10852000237500222E33EA54BB070BD528002B6994
:10853000984707E01B0A53706B6A01336B62E8E7E8
:1085400004232375F30604D5102323752376FB0635
:108550000ED4B30604D52023237523763B070BD412
:10856000330704D5082323752376BB0608D4F8BD4A
:108570002800EB699847ECE72800AB699847EFE7DC
:108580002B6A28009847F2E7C81D002010B508287C
:1085900003D880001D4B1B589F46002034E01C4B25
:1085A000186931E01B4B187D0007800F431C1A48E7
:1085B000584329E0164B586926E0154B1B680020EC
:1085C0009B0721D5134980225200CB681342FCD06F
:1085D0000F4B1A6824231340042B01D00F4813E0DB
:1085E00000200F4B98470A4B9B681B041B0C5843F9
:1085F0000AE02823074AD35C00209B0704D5044BDC
:10860000D86801E08020000210BDC046F8FF0000DD
:1086100028010020000C004000093D00006CDC0235
:10862000ED8B000070B50B4C237D85784678027881
:108630000321114089000C2293430B430B3A324033
:10864000920140218B431343ED017F2213402B43C2
:10865000237570BD000C004010B5837A9B061B0C7F
:1086600082899205920D13431A494B60037A427A2C
:1086700013438288C488224313434278D2011343B0
:108680008278920113430B600378042B11D0202BC6
:108690000ED1837B9B06428A1343028A12040E4941
:1086A0000A4013430B4A936011680C4B0B43136051
:1086B00010BD837B9B06428A1343028A120406493B
:1086C0000A401343034A9360136804210B43136069
:1086D000EEE7C046280100200000FF03240400004C
:1086E000082803D88000294B1B589F4617204BE0D1
:1086F000274A137D02210B431375002044E0254ACD
:10870000936902210B43936100203DE0204A138AC4
:1087100002210B431382002036E01E4A53690221D6
:108720000B43536100202FE01B490B6802221343C7
:108730000B60174B1A831900FE32CB681342FCD032
:10874000154A9168124B19625268DA6100221A8345
:1087500019000132FF32CB681342FCD00E4B1B686C
:108760009BB20B4A138300200EE0094928228B5C40
:10877000022003438B5408003821263A435C1342FD
:10878000FCD1002000E000207047C0461C00010022
:10879000000C00400010004028010020082832D8BA
:1087A00080001A4B1B589F46194A137D02218B43A8
:1087B000137500207047174A936902218B43936118
:1087C0000020F7E7124A138A02218B43138200200C
:1087D000F0E7104A536902218B4353610020E9E717
:1087E0000D4B1A6802218A431A601B689BB2084A23
:1087F00013830020DEE7064928228B5C0220834396
:108800008B540020D6E71720D4E7C0464000010073
:10881000000C00400010004028010020F0B5C646C2
:1088200000B58AB0802252005D4B9A60FD3A5D4BE4
:108830009A605D4A53681E218B431A390B4353607B
:108840008023DB059B78022B09D08023DB050122E6
:108850009A7101329A701A009379002BFCD002A908
:1088600001234B6000244C700C724C7203250D7078
:1088700000204E4B984706204D4B984701A8447066
:10888000057084704B4B984706204B4B98474449E2
:108890001022CB681A42FCD002A901234B600024AD
:1088A0004C7005330B700C724C7200203F4B984794
:1088B00005AB1C7000229C80DC801A725A729A7080
:1088C0000C2159825A703D4B1B689B0E3F2B64D084
:1088D00005A8837280239B008381FA3BFF3B83734F
:1088E00038330382364B9847364B984702AC002505
:1088F000657006239846237025726572FA235B0023
:10890000039321000120294FB84701202E4EB04784
:1089100001236360657043462370257265722100F0
:108920000220B8470220B0470720234B98471C4934
:1089300080225200CB681342FCD0244C0123A37147
:108940006371237102A94B6000234B700B724B7251
:1089500007330B700020154B984700201A4B98479F
:1089600000201B4B98472179C9B21A4B98471A4BE4
:1089700098420ED88023DB059B78002B09D08023FA
:10898000DB0501229A7100229A701A009379002B5C
:10899000FCD00AB004BC9046F0BD203B98E7C0462E
:1089A000000C00400014004000400041018A00001B
:1089B0009D87000025860000E18600002060800081
:1089C00059860000DD890000AD8A000000040040E7
:1089D000ED8A000021DC0000001BB700064A536945
:1089E00040210B4353610122044B1A7019000B788C
:1089F0001342FCD17047C0460004004000180040FC
:108A000070B504000D784B78002B02D08023DB007A
:108A10001D434B7A002B02D080231B011D43486865
:108A200001280FD9431E184231D102282DD9022323
:108A3000002201325B009842FBD880235B011D437A
:108A4000120415430B7A002B02D080239B011D4397
:108A50000426A6401149124A4B6813401E42FBD11E
:108A6000104B9847A4000D4B9C466444226A802317
:108A70005B001A402A4322626146094A4B68134050
:108A80001E42FBD1084B984770BD0022D5E7000479
:108A900080239B0018430543D4E7C04600180040DC
:108AA000FC070000397000007970000010B5040068
:108AB0000422824009480A4943680B401A42FBD10C
:108AC000084B9847A400054B9C466444226A8023C7
:108AD0005B0013432362044B984710BD001800400D
:108AE000FC0700003970000079700000F8B5040040
:108AF000042282401248134943680B401A42FBD1BA
:108B0000114B98470E4F0834A400E0590007000F9E
:108B10000E4B98470600E559ED04ED0FE459240C7F
:108B20000B4B9847002D07D1012C07D921003000AD
:108B3000084B9847060001E00134E6403000F8BDDC
:108B400000180040FC070000397000008D8500000F
:108B50007970000021DC000010B50400094B984733
:108B6000A000094B9C4660448022835840210B435F
:108B700083504031403A43581A42FCD0034B984747
:108B800010BDC04639700000001800407970000028
:108B900010B50400094B9847A000094B9C4660445F
:108BA0008022835840218B4383504031403A4358C0
:108BB0001A42FCD1034B984710BDC04639700000E3
:108BC000001800407970000070B504000D00054BDE
:108BD00098472A780F2313402034A400024AA35058
:108BE00070BDC046918B00000018004010B5040015
:108BF000064B98472034A400054BE4582407240F63
:108C0000044B98472000044B984710BD3970000072
:108C10000018004079700000ED8A000030B5D3786C
:108C2000002B35D11378802B29D01B0680246402B9
:108C3000234354780225AC4306D19478002C20D1EC
:108C40008024A402234341605478013C012C1CD9A8
:108C50000D042D0CA024E4052C431C4384620D0C50
:108C6000D02424062C431C438462D478002C22D1C7
:108C70005B031CD59378012B1ED0416117E00023C4
:108C8000D7E7C024E4022343DDE70D4C2340DFE7B0
:108C900041600C04240CA023DB05234383620C0CED
:108CA000D0231B0623438362D378002B03D1537850
:108CB000013B012B02D930BD8161F8E78160FAE701
:108CC000FFFFFBFF10B50A00C1090023002904D1F2
:108CD0004309DB0105498C4663441F2420400121E0
:108CE00081401800024B984710BDC0460028004044
:108CF0001D8C00007047FFFF10B5054B9847054BD2
:108D00009847054B9847054B9847054B984710BD2A
:108D10001D880000A9700000F58C0000257200007D
:108D2000F58C0000931C9B001950022A09D0032ADD
:108D30000CD0012393401A00037E134303760020D6
:108D40007047037E102213430376F8E7037E202248
:108D500013430376F3E7FFFF70B58000164BC4584A
:108D600023689D7A227E637E13401D40EB0706D464
:108D7000AB070BD4EB0610D4AB0615D470BD2000A6
:108D8000A3689847012322689372F1E72000E36803
:108D90009847022322689372ECE7200023699847E2
:108DA000102322689372E7E72000636998472368DD
:108DB00020229A72E2E7C046E01D002010B5002094
:108DC000014B984710BDC046598D000010B50120D9
:108DD000014B984710BDC046598D000010B50220C8
:108DE000014B984710BDC046598D000030B585B085
:108DF00001AA0B4B32CB32C2019B98420DD0029B91
:108E0000984208D00023039A824202D0180005B08D
:108E100030BD023302E0012300E00023DBB2F5E7BE
:108E20008C000100F0B5C64600B58AB004000D0004
:108E300016000800AA4B9847804609AB1B221A70FF
:108E40005A7002329A7003A9A64B0C330A0083CBE6
:108E500083C283CB83C20023A360E3602361636189
:108E60002376637643469A009F4BD4502560342383
:108E7000F35CA376F378082B08D023712B680520C8
:108E8000DB0708D50AB004BC9046F0BD1720424667
:108E9000D207F7D4F1E7EB7A17309B07F2D42B68AF
:108EA0009B07EFD4337C002B12D1337F002B1BD1D7
:108EB00043465A0003A9531C9B0058584346DB0005
:108EC0005B58D9B2042923D88B008849CB589F46D8
:108ED00002A901238B700022CA70327E0A704B7087
:108EE000307D834B9847E0E702A901238B70002275
:108EF000CA702432B21812780A704B701F33F318FC
:108F000018787B4B9847D3E77A494B6918434861F7
:108F1000F378082B00D185E001A933780B7009ABF9
:108F200042469F5C3800744B98473800734B984713
:108F3000F378F2791343B2881343727A002A02D08D
:108F4000802252021343B27A002A02D08022920277
:108F50001343F27A002A02D0802252031343327B59
:108F6000002A02D080229203134371788901B278DB
:108F7000D2011143194322681369002BFCD12960E7
:108F800022681369002BFCD1B3792B73717B4B1EC4
:108F900099418900B37B002B01D00123194322683A
:108FA0001369002BFCD1FF332B71002904D02268F8
:108FB0001369002BFCD16971337A6B7322681369D2
:108FC000002BFCD12379042B59D0082B74D0172007
:108FD000002B00D056E71369002BFCD1338DAB82F8
:108FE00022681369002BFCD1738DAB83226813694F
:108FF000002BFCD1B38DEB83002043E73D498B6907
:109000001843886184E73B49CB691843C8617FE70F
:1090100038490B6A184308627AE7364B596A0843A5
:10902000586275E743460133022B00DD74E703AB5A
:10903000D11C8900C95802329200D358DAB2042AEE
:1090400000D969E793002E4AD3589F46294A5369AD
:109050001943516160E7274A9369194391615BE7BE
:10906000244AD3691943D16156E7224A136A194346
:10907000116251E71F4B5A6A114359624CE7136959
:10908000002BFCD12833F35C2B7522681369002B6D
:10909000FCD12933F35CEB7622681369002BFCD1F9
:1090A0002A33F35C2B7722681369002BFCD12B3316
:1090B000F35C6B770020E5E61369002BFCD1B36A03
:1090C0006B6122681369002BFCD1F36AEB612268A3
:1090D0001369002BFCD1336B2B620020D2E6C04613
:1090E000ED8D00008C000100E01D002064000100F7
:1090F000C58C000000040040C98B0000598B0000A3
:109100007800010002681369002BFCD1137101681B
:109110000B69002BFCD18033537153795BB2002B68
:10912000FBDB02681369002BFCD10379042B05D00B
:10913000082B09D00020002B03D07047107DC0B24F
:10914000FBE7908A80B2F8E75069F6E710B504684B
:109150002369002BFCD10379042B06D0082B28D0DF
:10916000002B13D01723180010BD17230129FAD89C
:10917000837E002B05D0D2B2611830310A700023F3
:10918000F1E7D2B2641822770023ECE71723012914
:10919000E9D8837E002B05D092B2183149000A53DA
:1091A0000023E0E792B20C3149006418A28000234A
:1091B000D9E717230129D6D8837E002B05D10631A4
:1091C0008900641862600023CDE70C3189000A51E0
:1091D0000023C8E7FEE7FFFF10B51A4A1A4B9A4270
:1091E00011D01A00194B9A420DD2194A03339B1A17
:1091F0009B0801339B000022134812498C5884506D
:1092000004329A42FAD1134A134B9A420AD2D343F8
:1092100011495B1803218B4304339B18002102C2C0
:109220009342FCD10D4AFF210D4B8B4393600D4AB5
:1092300053687F390B4353600B4B98470B4B984750
:10924000FEE7C04674080100000000209C000020DA
:10925000040000209C000020A422002000ED00E07B
:109260000000000000400041A5EB0000C9D700004D
:10927000F0B5C64600B50C00904600280FD1002A74
:1092800011DD8F18094E0A4D306821002B68984770
:109290000134BC42F8D1404604BC9046F0BD0123E5
:1092A0005B429846F7E78046F5E7C046F41D00208C
:1092B000EC1D0020F0B5C64600B50E0015000138C3
:1092C000022810D8002A11D000240C4B98460C4FCD
:1092D00043461868315D3B689847002808DB013435
:1092E000A542F5D106E00124644203E0140001E048
:1092F00001246442200004BC9046F0BDF41D00200F
:10930000F01D00200300064A1268002A04D0044A17
:109310001068C318136070470249014A1160F6E7EC
:1093200040010020A84200200120404270478023D5
:109330009B014B6000207047012070470020704760
:1093400000BEFEE7704701204042704770B582B012
:1093500005000E0000226B46DA80064C6B46991D14
:109360002800A0470028F9D16B4606331B883370CC
:1093700002B070BD3B82000070B505008CB2034E98
:1093800021002800B0470028FAD170BD15820000E6
:1093900010B582B06B46DC1D012221000F48104B36
:1093A000984772B6BFF35F8F00220E4B1A700E4BB8
:1093B0001B7821780D4AD1549B2B0AD001330A4ADD
:1093C00013700122074B1A70BFF35F8F62B602B0B1
:1093D00010BD0022044B1A70F3E7C0464401002080
:1093E000618300000C00002015020020780100209D
:1093F000F0B591B08023DB05009300230193FF2299
:1094000069460A8100228B72CB72012424216846AE
:1094100044540131445401314354013143540A93BB
:109420000531435405930382C37602760277427670
:10943000132383764277C4239B03039301235B4268
:109440000C930D932E4B0E932E4B0F93E1235B0247
:10945000089302222D23C2542B4D2C4B1D602C4A05
:109460002C4B1A602C4A2D4B1A606A462C49280056
:109470002C4B98472C4F3B68986800212B4EB047E7
:109480003B6858680021B0472E683000284B984749
:109490001F2318408440274B1C602A68D369002B87
:1094A000FCD13368022213433360174B1B68DA691F
:1094B000002AFCD15968802252020A435A600121D5
:1094C000114AD171DA69002AFCD1DA69002AFCD18B
:1094D0005968802292020A435A6001210A4A917116
:1094E000DA69002AFCD114490320144B984704225E
:1094F0000B4B9A75802212010E4B1A6011B0F0BD11
:10950000020018000200190044010020F41D002090
:1095100079930000F01D00204D930000EC1D002009
:10952000000C0042B17E00003800002099F20000DB
:10953000517A000000E100E091930000157A0000EC
:10954000F0B583B0060001916B469D88054C064F2F
:109550002A0031002000B8470028F9D1019803B053
:10956000F0BDC04644010020A582000070B5020095
:109570001F4B1C781F4B1B789C421ED3E31A1E48BE
:1095800003701D4B1878002830D09B281BD9194B2D
:109590001C709C20184B1870081C9C2901D9174B73
:1095A0001878C0B2002821D0124B1B78441EE4B2B8
:1095B00001341419124D00260EE020006438C31A3D
:1095C0000D480370DDE7031C884200D90B1CD8B29C
:1095D000E8E73300944207D0E95C117001329B2B1D
:1095E000F7D00133DBB2F5E7024A137070BDC04615
:1095F000150200201402002016020020B000010015
:1096000078010020F0B5C64600B584B014001F00F4
:10961000294BCB1840031D18002F1AD0274B5A1E78
:1096200095421CD87A1993421FD3C91980239B01F4
:10963000994220D8224B98463E1C102F00D9102664
:10964000B6B2320029006846C047002E28D0002359
:109650001FE01C4B1C4AD9211C481D4CA0471D4B28
:10966000194ADA2119481A4CA0471B4B164ADB212C
:109670001648174CA047194B134ADC211348144CC9
:10968000A047FF21914212D10133DBB29AB2964238
:1096900006D96A46D25C002CF3D021780134F1E778
:1096A000BF1BBFB2AD19002FC6D1012000E00020C2
:1096B00004B004BC9046F0BD002100000061000031
:1096C0000BEC0000B400010038020100C4000100EE
:1096D00049EB0000040101002001010054010100D8
:1096E00010B50B4AFF231A4206D10A4B0A498C4691
:1096F0006344934206D110BD084B094A59210948D9
:10970000094CA047094B064A5D210648064CA04774
:10971000002100000061000000C0FFFF8401010083
:10972000F4010100C400010049EB0000B401010094
:1097300070B515004403134808182418124A501E27
:1097400084420DD8E018824210D3C91880229201B9
:10975000914211D81A00210028000C4B984770BD87
:109760000B4B0C4A72210C480C4CA0470C4B094A7D
:1097700073210948094CA0470A4B064A7421064840
:10978000064CA04700210000006100000BEC000027
:109790000401010000020100C400010049EB0000C7
:1097A0002001010054010100F0B5DE4657464E4647
:1097B0004546E0B593B001929A46464C0C194003D9
:1097C0002518002B47D0444B5A1E954249D8524683
:1097D000521993424BD3D346514480239B01994263
:1097E0004BD83E4B1B68002B00D098473F272F409B
:1097F000EC1B4026F61B5E4500DD5646B3B29B4689
:109800004022FF2102A8364B98473B0002AA94460B
:10981000634400933604370C3A0001991800314B29
:109820009847314B9847314E402202A92000B0475B
:109830000528F9D02E4B984753465A469E1AB6B281
:10984000EC19019B9946B944002E3BD0244B9B4612
:10985000244B984631E0274B274A8A212748284C39
:10986000A047284B244A8B212448254CA047264B4F
:10987000214A8C212148224CA047244B1E4A8D218D
:109880001E481F4CA0479FB24022FF2102A8D84784
:109890003A0049460098C047134B9847134D402261
:1098A00002A92000A8470528F9D0114B9847F61BBC
:1098B000B6B2E419B944002E04D0331C402EE2D9CC
:1098C0004023E0E713B03CBC90469946A246AB4625
:1098D000F0BDC04600210000006100001802002019
:1098E0001DEC00000BEC000039700000AD740000AE
:1098F00079700000B400010010020100C4000100F2
:1099000049EB0000040101002001010054010100A5
:1099100070B544030C482418FF239C430B4B013BB8
:1099200080229201A6189C4207D8094D2000A84722
:109930000134FF34B442F9D170BD064B064AC2214E
:109940000648074CA047C046002100000061000007
:10995000857500000401010020020100C40001001F
:1099600049EB000010B513000022014CA04710BDC8
:109970000596000010B5014CA04710BD05960000EB
:1099800010B5054B1B68002B04D0984701235840A5
:10999000C0B210BD0020FCE78C030020012909D0D3
:1099A000002902D002290DD070470A4B1A8880186E
:1099B0001880F9E7074A13880F33C0180F2398431C
:1099C0001080F1E7034A13883F33C0183F239843C0
:1099D0001080E9E79203002030B5002919D0FF2458
:1099E00013E02300150A6B401D096B4012025A4018
:1099F0001D036A405B015A4092B203005D1EAB41F9
:109A0000C018013989B2002903D00028E9D00378B1
:109A1000E8E7100030BDFFFFF0B5DE46574680B5E1
:109A200089B0019002919346109A002A0DD0924677
:109A30009A445B449DB25E46029C0120AB453ED0F9
:109A4000224F002C08D1002039E000229246F0E796
:109A500004AB5C89002C31D0102304AA21000198AA
:109A6000B84704AB9A88AA42F2D2DB88D3189BB2DB
:109A7000B342EDD9AB4201D21E00E9E7A91A89B27F
:109A8000B24215D904AB5B8903930B00ED1AADB25A
:109A90005246002A08D010340919D21A9246C91A1F
:109AA00089B20198094CA047AE420DD0039CC8E78B
:109AB000AB1B9BB25E46029A0392E7E7002009B017
:109AC0000CBC92469B46F0BD0120F8E731970000A0
:109AD000F0B5DE46474680B587B00490059195798C
:109AE000D3791B021D43177953791B021F432C0A9C
:109AF00064B2002C2FDB1C4B03931C4B984611E0E7
:109B0000002D2AD01A4B00932B003A000599049897
:109B1000184EB047002820D0290015E0013C64B25F
:109B2000631C1AD0002CEBD0013DFF3DADB2104BB1
:109B3000009380235B003A00059904980D4EB047CE
:109B40000028EBD0802149007F18BFB2039A084853
:109B5000C0470390E2E7044B0393039807B00CBCA3
:109B600090469B46F0BDC046FFFF0000D99900001B
:109B70004C020020199A000070B5164B1C78002C7E
:109B800026D0154B1B88834216D00123124EDAB221
:109B900094421BD91D00591C9A00B25A824201D02E
:109BA0000B00F4E79B000C48C018AD000A4B5D1990
:109BB0006B88002B03D070BD07480025F5E7074BE5
:109BC000074A8C21FF310748074CA0470020F2E7E5
:109BD0000020F0E78803002068030020B4020100A1
:109BE0009C030100D002010049EB000010B5054BB9
:109BF0009847002804D08378C0780002184310BD2D
:109C00000020FCE7799B000010B504000E4B98473C
:109C100000280BD10D4B1B78072B0ED8591C0B4A73
:109C200011700B489B001C52C01810BD094B0A4A0A
:109C3000CC21490009480A4CA0470A4B064A9A2100
:109C4000FF310648064CA047799B0000880300209E
:109C5000680300205C020100AC030100D002010097
:109C600049EB00007802010010B50B4B9847002823
:109C70000BD00A4B19780139C9B219708900084B09
:109C800059180422074B984710BD074B074AD321A8
:109C900049000748074CA047799B00008803002033
:109CA000680300200BEC000098020100BC030100D7
:109CB000D002010049EB000010B5054B9847002881
:109CC00000D010BD034B1878034B9847F9E7C04606
:109CD000819900000D0000201199000010B5084C7A
:109CE0002078084B98472078802292010021064B6B
:109CF0009847002803D080225200044B1A8010BDE0
:109D00009003002011990000659900009203002043
:109D1000F0B583B001900D001600074F387813009E
:109D20000A000199054CA047387833002A000199B0
:109D3000034CA04703B0F0BD90030020A99700009A
:109D40007599000010B586B001AC4123A3701333A0
:109D5000E370013B2371053B63712833A371443BDE
:109D6000E3710390C0430490084B1B882382084A88
:109D700010216B46981D074B984720801222210026
:109D80000020054B984706B010BDC0468A0300204E
:109D9000FFFF0000D9990000119D0000F8B50400F4
:109DA0000D00214A1388CB189BB21380FF2B2ED9AC
:109DB0001E4B1A88801880256D00AA1A1C491D4B5D
:109DC00098471D4B18882A0021001C4B9847051EF8
:109DD00027D0002180204000194B9847134B18884A
:109DE00000221A80104B1E88013EFF3EB6B21E8034
:109DF000002E16D080214900091A89B20C4B59183F
:109E0000320020000B4B9847084B1E8009E0074E9C
:109E10003788C0190A000649064B9847ED19358066
:109E200001252800F8BDC046480200201C02002081
:109E30004C0200200BEC000092030020119D00005A
:109E40009D990000F0B5DE4657464E464546E0B5C2
:109E5000D5B07B487B4B984700237B4A13807B4AD5
:109E600013807B4A13807B4A13807B4B1B781F0037
:109E7000039312230FAA00213800784CA047119BAE
:109E80000993754C2500260008E03370724B1B784F
:109E9000BB420BD0724B984700280DD12378013379
:109EA000DBB2012BF1D900232B70EFE76D4B6E4A2B
:109EB0006E496F486F4CA0476F4B1B78002B6AD0E0
:109EC000002306930133FF3399466A46D3826B4BD6
:109ED00010330893069B07939F00694B9C46674489
:109EE0007B881D00049310230BAA29000398804649
:109EF0005A4CA0470BAE0023B3803489F4807381A1
:109F0000B3811034A4B23200290040465D4B98471B
:109F100030805D4A0E210BA85C4B9847F081574D6D
:109F20004A46FF2128005A4B98472B0007CE07C30B
:109F300032681A60574B1B88454A12889B187B80F1
:109F40004C4504D9002610234C4A904668E00BABE0
:109F50001B89089A00920022049903984E4EB0473C
:109F6000002863D0079B9D00454B5D19494B1B881A
:109F7000374A12889B186B80210014A8474B9847DA
:109F8000002853D0069B0133DBB21A0006933A4BEC
:109F90001B7893429ED82F4B1A88002A06D03D4B3F
:109FA000188814A93E4B9847041E40D0294B1888A6
:109FB00000213C4B9847374B1A883B4B1A80099835
:109FC00001383A4B9847041E31D002210020354B0E
:109FD0009847374B6A46127B1A70364D2800194B4A
:109FE00098472800344B984721E0ADB2EF1ABAB237
:109FF0009346434400931300320004990398264F7C
:10A00000B847002812D0290014A8244B98470028EC
:10A010000CD0641BA4B25E44B6B20023002CB1D0B5
:10A02000251C4C45E1D96A46D58ADEE7002420008C
:10A0300055B03CBC90469946A246AB46F0BDC046E2
:10A040003402002021CE00006003002062030020C3
:10A050001C020020480200209003002031970000DD
:10A06000DD9C000054020100D8030100D50300006C
:10A07000D002010049EB0000880300204C020020C0
:10A0800068030020D19A0000FFFF0000D99900006A
:10A090001DEC000092030020199A00009D9D000015
:10A0A000119D00009D9900008A030020459D00003D
:10A0B0000D0000204C0300208DCE000010B5074B92
:10A0C0009847002800D010BD054B9847054B064A1D
:10A0D0002C21FF310548064CA047C046819900005D
:10A0E000459E00005402010084030100D0020100DB
:10A0F00049EB000010B5124B1A8880239B019B1A74
:10A100009BB2834203D30F4A93420AD910BD0E4B30
:10A1100098470028FAD10D4B0D4A0E490E480F4CB6
:10A12000A0470F480F4B98470028EFD10C4B0E4A21
:10A130001A610E4A5A609A6000221A73E6E7C04616
:10A14000920300200F080000459E00005402010009
:10A15000E80301004E040000D002010049EB0000BA
:10A160003402002061CE0000BDA0000010270000D6
:10A17000F0B5DE4657464E464546E0B58BB0774BC8
:10A1800098470523002807D018000BB03CBC904628
:10A190009946A246AB46F0BD714B1888002846D1BF
:10A1A000704B1B88002B00D1D0E06E4B18886E4B93
:10A1B00098478346002800D1CAE08278C3781B0202
:10A1C000134319000393694B1878102306AA684CAF
:10A1D000A047634B1A88002A2ED0664B1B88059334
:10A1E00006AB1B8906A90A81191C934200D9111CD0
:10A1F0008BB206AA002191801089D0805181918173
:10A200001C001034A4B25C4961CA61C112680A60C2
:10A2100080225200944239D9002610238022520015
:10A22000914669464A82514A92461A0088E01030A7
:10A2300080B2524B9847B8E706AB1889103080B20D
:10A240004E4B9847474B1888474B98478346002802
:10A2500015D08278C3781B0213431900039306AC10
:10A26000424B187810232200414DA847414B1B88D0
:10A27000059323893A4A1288002ABAD0B2E7404BA4
:10A28000404A9121C9004048404CA047374A1078C5
:10A29000394A10320092002203993D4CA047012315
:10A2A000002800D170E7344906AB0A00180070C8D6
:10A2B00070C200681060DA88103292B22D4B188894
:10A2C000344B98470023002800D15DE706ABD888BF
:10A2D000103080B20221304B98470023214A13806E
:10A2E0001F4A13805B46059999700B0A5A46D37032
:10A2F000002349E7ADB2AF1ABBB219005346187834
:10A300001D4B9B18009302910B0032000399204FC4
:10A31000B84700281ED0174B18882A0016491D4B35
:10A320009847002818D0022128001B4B9847641B2F
:10A33000A4B202998C466644B6B20022002CCCD05E
:10A34000251C4C45D6D96B465D8AD3E700231BE715
:10A35000002319E7012317E7002315E7819900007F
:10A360006203002060030020799B0000900300201E
:10A3700031970000920300204C020020F5A000005D
:10A380004402010000040100D002010049EB00007A
:10A39000199A0000119D00009D99000010B5014B15
:10A3A000984710BD71A10000F0B5DE4657464E46F5
:10A3B0004546E0B583B004008A46464D80225200EF
:10A3C000FF212800444B9847444EA379E1790902C4
:10A3D000194332005046424FB8472070000A60705F
:10A3E00032000E212000B847A073000AE07310224B
:10A3F000210028003B4B9847A379E27912021A43C7
:10A4000015001035ADB25346002B12D080235B00EF
:10A410009D4209D90026102780235B009B466A468F
:10A42000D3802C4B994645E051462A4810302D4B9D
:10A430009847A379E27912021A43103280235B0015
:10A440009A4200DD1A0092B2274B18882149274B07
:10A4500098478046002833D0A379E079000218435A
:10A46000103080B20221224B9847404603B03CBCDA
:10A4700090469946A246AB46F0BDA4B24B46D819C9
:10A48000E21B53469919174B9847174B188822001F
:10A490004946164B984780460028E6D00221200006
:10A4A000134B98472D1BADB2E41B3619B6B20027EB
:10A4B000002DDAD02C1C5D45DFD96B46DC88DCE74B
:10A4C000A379E07900021843103080B20221084BD2
:10A4D0009847CAE74C0200201DEC0000FFFF000077
:10A4E000D99900000BEC000092030020119D0000A0
:10A4F0009D990000F0B5CE46474680B591B0002248
:10A50000B34B1A70002401235B429946FF27B14EDA
:10A5100012230BAA00212000B0470D9D0E9B019332
:10A520006B4001331DD00134E4B2022CF0D1FF2F77
:10A5300057D0A94B1F704346012B00D17BE0434607
:10A54000022B6AD180225200A44B1A80122306AA41
:10A55000002138009F4CA047A04DA14B98462E00EB
:10A560000FE102AB26229B181B78412BDBD102ABFB
:10A5700001329B181B78542BD5D102AB01329B18AA
:10A580001B78532BCFD102AB01329B181B784E2B7B
:10A59000C9D102AB01329B181B78762BC3D102AB19
:10A5A00001329B181B78312B06D102AB9B8C002B00
:10A5B000B9D1012398460FE0322BB4D1894A10213A
:10A5C000262002AB9C466044874B984702AB9B8C8D
:10A5D0008342A8D1022398464D45A4D2A94627001C
:10A5E000A1E700227C4B1A70804C814E814D06E021
:10A5F000794A13780133DBB21370012B15D8A047C9
:10A600000028F5D001235B42338002204042A84756
:10A610000028EDD000226E4B1A700122764B1A7082
:10A6200011B00CBC90469946F0BD744B744A754904
:10A630007548764CA0471022684B1A801021664E50
:10A64000644D694F72E006AB1B88002B07D006AB48
:10A65000D888103080B20121614B984761E006AB89
:10A660005C8820006A4B9847002810D05B4B1A7812
:10A6700082705B78C37006AB1B89002B0BD006ABD6
:10A68000D888103080B20121554B984749E020000E
:10A69000604B9847EAE720005F4B9847EFE74F4B46
:10A6A00019884D4B187802AA5C4B984702AB1B885F
:10A6B000834207D002ABD888103080B22100484BCB
:10A6C00098475EE002AB5F883800514B98470028FE
:10A6D00010D0424B1A7882705B78C37002AB1B8932
:10A6E000002B0BD002ABD888103080B221003C4B3D
:10A6F000984746E03800474B9847EAE73800464B12
:10A700009847EFE706ABDC89364A0C21122002ABF2
:10A710009C466044B847844295D001211020304BBC
:10A7200098472E4B19883E4B994212D806AC307888
:10A7300010232200A8472378FF2BE3D106AB1F216B
:10A7400002AA944661445A78FF2ADBD101338B4236
:10A75000F9D1344B9847002800D05EE7274B324AA6
:10A7600032492948294CA04702ABDF891D4A0E21F6
:10A7700018001D4B9847874291D021001020184B9C
:10A7800098472B88264A934200D946E706AA128AA0
:10A7900014498A4202D000249A4203D802210020A0
:10A7A000C047022431880C4B1878102302AA094FA5
:10A7B000B84702AB1B78FF2BD6D102AB0F219C46CA
:10A7C00061445A78FF2ACFD101338B42F9D124E773
:10A7D000880300203197000090030020920300209E
:10A7E0009D990000FFFF0000D9990000DD9C00004A
:10A7F0008A030020459D00006403002054020100EC
:10A800000C0401002B050000D002010049EB000000
:10A81000799B0000099C0000699C0000D19A00000F
:10A82000FF1F0000459E0000CC030100360300001E
:10A8300010B5084B1B78002B08D0074B074A1A614C
:10A84000074A5A609A6000221A7310BD054B984758
:10A85000F3E7C046640300204C030020B99C0000CD
:10A86000581B0000F5A40000F0B5CE46474680B561
:10A8700087B00400019115001F0000280CD0002BA8
:10A880000AD0354B9847052300280BD0180007B095
:10A890000CBC90469946F0BD304B314A31493248A4
:10A8A000324CA0472800103080B2314B984720002E
:10A8B000304B9847060003230028E7D08378C478FC
:10A8C00024021C43A0462C4B1878102302AA210016
:10A8D0002A4CA04702AB1989019B5A1904238A42CA
:10A8E000D4D802AB6A4692889A80DD8042465A816B
:10A8F0008D422CD002AB9B89013302AA9381204B5D
:10A900001C88390002A81F4B984701230028BDD09E
:10A91000B470240AF47002AB9A890023642AB5D972
:10A9200002AB5A88184B1A800022184B1A8018481C
:10A93000184B984700230028A8D1154B164A1A61D6
:10A94000164A5A609A6000221A7300239EE7002379
:10A9500002AA9381D3E7C0468199000064030100F5
:10A960003004010096050000D002010049EB000010
:10A97000F5A00000799B00009003002031970000B3
:10A9800092030020A9A300006003002062030020BE
:10A990002002002061CE00009DA30000B80B000043
:10A9A000F0B583B00C0015001E00002809D0002B64
:10A9B00007D0104B98470323002808D1180003B094
:10A9C000F0BD0D4B0D4A0E490E480F4CA0476219C1
:10A9D0000E4901338A42F1D80D4B1F7800962B00A7
:10A9E0002200010038000B4CA047434243419B002A
:10A9F000E4E7C046ED9B0000640301004004010051
:10AA0000EE050000D002010049EB0000FFFF00004E
:10AA100090030020199A000010B584B0002805D0DA
:10AA20000A4B9847011E07D104B010BD084B094AD4
:10AA300009490A480A4CA0470A4B187810236A466D
:10AA4000094CA0476B461889EEE7C046ED9B000015
:10AA500058030100500401000B060000D002010061
:10AA600049EB00009003002031970000F0B585B05D
:10AA700004000E001500431E9BB22E4A93421ED8BE
:10AA800080231B0199421AD82B4B984700281DD0D0
:10AA900020002A4B9847864207D0294B1C80294B1F
:10AAA0001E80294B9847031E15D1002D40D02B0046
:10AAB000320000212000254CA04703000BE0244B6E
:10AAC000244AAA21C9002448244CA047244B984773
:10AAD0000523002802D0180005B0F0BD300010306A
:10AAE00080B2204B9847204B1B78072B19D81F4B5F
:10AAF0001F886B465C8000236A469380D68016814F
:10AB00005381938129006846194B984701230028F7
:10AB1000E1D02000174B984787703F0AC770022387
:10AB2000D9E7154B0B4AAF21C9000B480B4CA04786
:10AB30000023D0E7FEEF0000ED9B000019AA000003
:10AB4000600300206203002071A10000A1A90000A1
:10AB5000180301001C040100D002010049EB0000B1
:10AB600081990000F5A000008803002092030020D6
:10AB7000A9A30000099C000078020100F0B5C646B8
:10AB800000B504001C4B98470523002803D018008B
:10AB900004BC9046F0BD002C05D0184CA047012005
:10ABA000A0470023F3E7164B1B78002B22D0154C4F
:10ABB000013BDEB20136B600A6190025124F134B39
:10ABC000984602E00434A64206D02088B842F9D064
:10ABD000C0470135EDB2F5E70023002DD7D00C4B6F
:10ABE000984700230028D2D10A4B0B4A0B490C4846
:10ABF0000C4CA0470023CAE781990000119900007E
:10AC00008803002068030020FF0F0000699C0000FB
:10AC1000459E000054020100680401006B0600001C
:10AC2000D002010049EB000010B5034B9847431ECA
:10AC30009841C0B210BDC046ED9B0000F0B5D646AD
:10AC4000474680B587B00F00204B984212D043048E
:10AC500015D4C308CF1807231840063B83403A7821
:10AC600013433B7001230193019807B00CBC90463D
:10AC70009A46F0BDFE230B70FD3B0193F4E704A957
:10AC8000134B984701900028EED004AB9B88984660
:10AC9000002BE9D0002402AB9D1D0E4B9A460726DF
:10ACA0006100049B9C46614402222800D047298809
:10ACB000CA08BA18314001238B4011780B43137036
:10ACC0000134E4B2A3B24345EAD3CDE70240000029
:10ACD000DDB000000BEC0000F0B5D646474680B56D
:10ACE00089B007A900230B70274B9847061E43D055
:10ACF0000024264F264B9A46264B984610E0264BBA
:10AD0000264AAB2149002648264CA047264B234A19
:10AD10006821FF312248234CA0470134082C2BD056
:10AD200007AB1B78E340DB07F7D5A5B203A92800E2
:10AD3000B84700281FD003AB5B88002BDFD0049BF3
:10AD4000002BDCD0059B002B00D098472800D04773
:10AD5000019003AB049A59882800C047022811D0FB
:10AD60000028D3D103AB5A880499019B28000F4DCA
:10AD7000A8470028D1D10026300009B00CBC90466D
:10AD80009A46F0BD0026F7E73DAC00003DB000005C
:10AD900019AA00006DAA00007C04010074050100DE
:10ADA000B804010049EB00000405010099B000005F
:10ADB00010B50549054B9847041E01D1200010BD70
:10ADC0000020034B9847F9E7980300203DAC0000B2
:10ADD000E9AF000010B5034B984743425841C0B259
:10ADE00010BDC0467DAB0000F0B585B03E4B1B7872
:10ADF0000133072213403D4A177838001E003A00FD
:10AE0000DA40D20731D40133DBB20722072501240F
:10AE10002B401E000100D9400C4226D10133DBB289
:10AE2000013AD2B2002AF3D10124E400E418200050
:10AE30002F4B9847002824D1694620002D4B984776
:10AE4000002838D0029B002B00D09847019A6B460F
:10AE500059882000284B9847FD2318422BD0274BB8
:10AE6000274AEB212748284CA0470122B2409743AC
:10AE70001E4A17700021254A11701B4A13700024C6
:10AE8000D3E7694620001B4B9847002813D06B4638
:10AE90005B88002B15D0019B002B12D0029B002B4E
:10AEA00000D09847019B6A46528800212000184C28
:10AEB000A04700280CD10D4B1B78002B0FD105B0FB
:10AEC000F0BD144B144A9A2149000E480E4CA0477D
:10AED000124B114AA12149000A480B4CA0470020FF
:10AEE0000F4B9847EBE7C0469903002098030020DA
:10AEF00029AC00003DB000006DAA0000040501006F
:10AF00004C050100B804010049EB00009403002047
:10AF100069A800007C0401006405010084050100AB
:10AF2000E9AF0000F0B585B003A900230B700C4B0E
:10AF300098470190002810D0002403AD0127094E46
:10AF400002E00134082C08D02B78E3401F42F8D0EF
:10AF5000A0B2B0470028F4D10190019805B0F0BD2F
:10AF60003DAC000029AC000010B5024B9847024BE5
:10AF7000984710BDE196000031A8000070B584B07C
:10AF80000124124E124D09E0124B134A503113485E
:10AF9000134CA0470134A4B2082C14D069462000F9
:10AFA000B0470028F6D06B4659880029ECD0002223
:10AFB0002000A847FD231842ECD00A4B064A5B212B
:10AFC0000648074CA04704B070BDC0463DB0000025
:10AFD0006DAA0000A0050100F8050100B4050100FC
:10AFE00049EB000004050100034A01238340117866
:10AFF0000B4313707047C0469A03002070B50D4B89
:10B000001D78002D12D02800EB0710D40023012456
:10B010000133DBB219000200DA401442F8D00123F8
:10B020008B405D40034B1D70034B984770BD002162
:10B03000F5E7C0469A030020E9AD0000F0B587B0FF
:10B04000019102AA104B110070CB70C11B680B60FC
:10B050001388834211D00D4B02AA11001C00E0CCD2
:10B06000E0C124680C601188814206D01033084981
:10B070008B42F2D1002007B0F0BD102202A9019846
:10B08000044B98470120F6E70061000010610000C2
:10B09000806100000BEC000010B584B09A4208D02B
:10B0A0006946094B9847002803D06B461B7BDB079A
:10B0B00002D5012004B010BD044B054ABC21FF316C
:10B0C0000448054CA047C0463DB0000018060100EA
:10B0D000080601004406010049EB000070B582B08B
:10B0E0000C006B46084A694660CA60C1DA880023D2
:10B0F000824202D0180002B070BD082269462000CA
:10B10000024B98470123F5E7606100000BEC00005B
:10B11000024B18700122024B1A7070478C1E0020DF
:10B120009B03002010B50278084B1A7042785A70C1
:10B130000A78074C22704A7862701888054B984745
:10B140002088054B9847012010BDC0467C1E00207A
:10B15000941E0020F1BA0000D1BA000010B50028FA
:10B1600009D10B781A2B07D8044A13701800044B26
:10B170009847012000E0002010BDC046961E002028
:10B1800049BB000030B583B06C46009001910E4B76
:10B1900098470E4D2B0006CC06C30D4B9847040074
:10B1A00001200C4B98470C4B1C7068680B4B984760
:10B1B0000B4B00221A7080215A5480315A5480312E
:10B1C0005A54012003B030BD35BA0000841E00205F
:10B1D00075BB0000BDBA0000F81D0020E9BB0000EF
:10B1E000B41E0020F0B5DE4657464E464546E0B553
:10B1F0008DB005900E000691111C1400240A0792D0
:10B20000019316AA157817AA13780393C3B2980668
:10B21000C20F0292C9B2E2B25C0700D50121082434
:10B220001C40674267417C42224003241C40012CA1
:10B230003AD0674267416846C774FFB2BA4605AF65
:10B240007F89B8467C4F3F88474530D00027B846B5
:10B250000737BB468946594608314F46002F00D074
:10B260000639002A36D00231C9B224271F40202FC8
:10B2700033D0032C35D0714C49192170534663707B
:10B2800005AC029B58012178202399430843207084
:10B29000C1438B072CD04B46002B4AD0002A31D01B
:10B2A000882466498C7030E00327BA46C7E7644FAC
:10B2B000B8450AD04027B846574640460743BA46E5
:10B2C0003F38804604308346C4E70020804607307C
:10B2D0008346BFE70831C9B2C7E753463B439A46A6
:10B2E000C7E701220023029398469A460721C2E746
:10B2F000524980208870534C2078461C2670C870B4
:10B3000004212CE0C8244D498C704E4C21784B1CF4
:10B3100023704A4CE17005A98B7A2371C97A617157
:10B32000430717D43078454988717078C87108216F
:10B3300015E0002A63D0414C8C21A170414B197853
:10B340004F1C1F70E17005A98B7A2371C97A617156
:10B35000430767D53949FF208871C87108214346E2
:10B36000002B09D1481CC0B2344C334E337863549F
:10B370000231C9B276782654002A31D02F48324C97
:10B38000227842548A1CD2B20131C9B26478445442
:10B39000002D0AD001995519EDB2284E501C0C7899
:10B3A000B4540131C2B29542F8D1284A019B1360CE
:10B3B000274B189A1A60274B6A46127B1A7009A805
:10B3C00000230370244B83601C4B4360234B98473E
:10B3D00001200DB03CBC90469946A246AB46F0BD5C
:10B3E0001F4A50680E000836F6B2144B4A1CD2B2FF
:10B3F00004785C5401301100B242F7D1C8E70F4C19
:10B40000CC21A1700F4B9C4619784B1C9946634682
:10B410004F461F70E17005A98B7A2371C97A61715B
:10B42000430797D40020054B345CC1188C71013060
:10B430000828F9D10E2192E7941E0020FC1D00205F
:10B44000FFFF0000F81D00207C1E0020A403002048
:10B450009C030020A003002011B1000059B9000096
:10B46000841E0020044B1B78032B03D8DB01002132
:10B47000024A99547047C0460E000020B41E0020B6
:10B4800070B5FF22D24B1A70D24B1B78002B00D024
:10B4900099E18033CF4AD35C002B0DD10133FF33C8
:10B4A000D35C002B30D18133FF33D35C0020002BE1
:10B4B00000D170BD032300E00123C54A13700020B2
:10B4C000032BF6D81900D801C24A12185578402427
:10B4D0002540C14800240470C473013C0482927862
:10B4E00033208243D0B2882800D1B8E00ED9D0B240
:10B4F000C82843D0CC2800D181E08C2800D1F1E0CD
:10B50000B64B98470020D4E70223D6E7082A00D19B
:10B5100019E18028F4D1B04A107804242043802413
:10B520006442204310700120D073AA48D901441806
:10B530002579157464795474DB019C1D24185460BA
:10B54000095C0B39117308331B189360A04B1B78EF
:10B55000D901A04A521851780A0700D50FE10722F5
:10B560000A40012A00D10EE1002A00D125E1032A78
:10B5700000D11AE1994B984700209AE7D801954AE3
:10B5800012189279FF2A1BD09348047880225242E5
:10B5900022430270002D1ED002008E48C9014418BB
:10B5A0002579157464795474DB011C00083424185F
:10B5B0005460095C1339117310331B189360C5E78D
:10B5C000844A1218D279FF2ADED1834802780424F3
:10B5D00022430270D8E7804A7E48C9014418257A80
:10B5E0001574647A5474DB011C000A342418546006
:10B5F000095C1539117312331B189360A6E776485E
:10B6000004788022524222430270002D13D002009F
:10B610007048D90144182579157464795474DB0194
:10B620001C000E3424185460095C19391173163348
:10B630001B1893608AE7684A6648D9014418A57BBD
:10B640001574E47B5474DB011C001034241854601E
:10B65000095C1B39117318331B18936076E7D80106
:10B660005C4A12189279FF2A1CD05B4A1478802019
:10B670004042204310700120D073002D1ED1554848
:10B68000C9014418257A1574647A5474DB011C00CE
:10B690000A3424185460095C0F3911730C331B18D9
:10B6A000936053E7D8014B4A1218D279FF2ADCD1B4
:10B6B00049480278042422430270D6E7464A4548A6
:10B6C000C90144182579157464795474DB011C0090
:10B6D000083424185460095C0D3911730A331B189F
:10B6E000936033E73C4A1478802040422043107036
:10B6F0000120D073002D12D03648D9014418257985
:10B70000157464795474DB011C000D3424185460E2
:10B71000095C1339117310331B18936016E72E4A16
:10B720002C48D9014418657B1574A47B5474DB0143
:10B730001C000F3424185460095C1539117312333E
:10B740001B18936002E7D801224A12189279FF2A47
:10B750000AD021481F4CC9010A5D0A3A0273DB0175
:10B7600008331B198360F1E61A4A1218D279FF2AAE
:10B77000EFD119480278042422430270E9E7174BFD
:10B780009847002095E614490A78032082430A70FE
:10B79000104ADB01985C1049D3181A18013A127844
:10B7A0008A731B5C4B73012083E60B490A780320E4
:10B7B0008243012002430A70EAE707490A7803201E
:10B7C00002430A70E4E70022014B1A70002379E675
:10B7D0000E000020B41E0020D420002065B400001C
:10B7E0000200054B1B780001002B00D07047900031
:10B7F0008018C000FAE7C0461100002010B50B4BBE
:10B8000098470B4B1B68002B03D00A4A1278002A7A
:10B8100000D110BD084A1268084909780848007824
:10B8200098470022034B1A70F3E7C04609BC00009A
:10B830009C0300209B030020A40300208C1E0020FA
:10B84000A0030020074B1878030703D44007C00F5C
:10B850006438704714231840143843425841623802
:10B86000F7E7C046AA03002010B5134B1B78002B46
:10B8700010D10022114B1A70114C21781420114B59
:10B8800098472378002B09D00B4B197813200D4BC8
:10B89000984710BD1C22094B1A70EDE708200A4B8F
:10B8A00098471F2301009943034B18780143C9B2FD
:10B8B0000820044B9847ECE7A9030020AA030020C6
:10B8C000A8030020E5D30000E9D20000F8B5040089
:10B8D0000F4B1B78022B16D00E4F0F4E1F25032146
:10B8E0000220B8470120B04728400828F7D1094F67
:10B8F000094E1F2521000220B8470120B0472840EB
:10B900008442F7D1F8BD80225203044B5A61E3E729
:10B910002D040020E5D30000E9D2000000280040FB
:10B9200010B50820084B98470F20084B9847084B44
:10B930001B78002B00D110BD1620034B9847012225
:10B94000044B1A70F7E7C046CDB80000E9D20000FA
:10B950002C0400202D04002070B505001020094B98
:10B960009847041E09D004300C222900064B984742
:10B9700021000648064B984770BDAB6801209847E8
:10B98000FAE7C04609CB00000BEC0000A81E00201F
:10B99000E5CC000010B51E4B1B7A002B04D01D4BCC
:10B9A0001B78013B012B00D910BD002118481A4B10
:10B9B0009847041EF8D083681B787F2B23D8192062
:10B9C000164B98470F20164B9847A26813780233FE
:10B9D0001370A36819780139C9B21800114B984740
:10B9E00003220C4B1A70104B802252039A61C046FE
:10B9F000C0465A610D4B22791A70E2689A602000A5
:10BA00000B4B9847D0E7C36801209847CCE7C04666
:10BA1000A81E00202D0400201DCD0000CDB8000080
:10BA2000E9D2000015D6000000280040981E002032
:10BA3000C5CB000070B5194B9847194B98470023A8
:10BA4000184A1370184A13700C20184B98473F235C
:10BA50001840174B18700122164B1A70164E134DD2
:10BA60001F2408210220B0470120A84720400828B1
:10BA7000F7D12E210438104CA0479E210C20A0475E
:10BA800002211620A047C0210520A0470C20074B0B
:10BA900098473F231840064B187070BD9DD1000099
:10BAA000B9D200002C040020A8030020E9D2000035
:10BAB000AA0300202D040020E5D3000010B5024B9E
:10BAC0001870024B984710BD2C04002021B90000CB
:10BAD00030B583B06B469D1DD880C1B22220034C87
:10BAE000A04769782320A04703B030BDE5D300000C
