:1000000090410020F5840000F1840000F18400009C
:1000100000000000000000000000000000000000E0
:10002000000000000000000000000000F18400005B
:100030000000000000000000F1840000F1840000D6
:10004000F1840000F18400005D680000BD630000E1
:10005000F1840000F1840000F1840000F1840000CC
:100060008D7100009D710000AD710000BD71000038
:10007000CD710000DD710000F1840000F18400000A
:10008000F1840000D9800000E98000000000000039
:1000900000000000F9800000F1840000F1840000FD
:1000A00000000000F18400000000000000000000DB
:1000B0000000000000000000000000000000000040
:1000C0000000000000000000000000000000000030
:1000D0000000000000000000000000000000000020
:1000E0000000000000000000000000000000000010
:10610000070001001603002000000000000000004E
:1061100006003200582100200000000000000000AE
:10612000050001000B00002000000000000000003E
:10613000040001000D00002000000000000000002D
:106140000300080010000020000000000000000014
:1061500002000200D81E0020000000000000000025
:10616000180E01000600014010B5064C2378002BE4
:1061700007D1054B002B02D0044800E000BF0123EB
:10618000237010BD9C00002000000000DC10010006
:10619000084B10B5002B03D00749084800E000BFAA
:1061A00007480368002B00D110BD064B002BFBD025
:1061B0009847F9E700000000A0000020DC10010073
:1061C000DC1001000000000070B50020084B98476B
:1061D0000500084CFA218900A047074B18600749C1
:1061E0002800A047064B18600522064B1A6070BDB8
:1061F000097E000009CD00000000002040420F0091
:106200000400002010E000E030B5084B1C68084A8C
:10621000002580214902013807D3002CFBD05460AF
:10622000956013680B42FCD0F5E730BD04000020F8
:1062300010E000E00C4B1B68002B06D1EFF310833D
:10624000002B07D00022094B1A70074A136801334C
:106250001360704772B6BFF35F8F0022044B1A7051
:106260000132024B1A70F0E7B8000020BC00002099
:1062700008000020084B1A68013A1A601B68002BBE
:1062800009D1064B1B78002B05D00122044B1A7054
:10629000BFF35F8F62B67047B8000020BC000020DB
:1062A00008000020F0B5CE46474680B583B001AC6B
:1062B000012666700027A7702670210013202D4D3F
:1062C000A8472D4B994680231B034A4693612670AD
:1062D00021001220A8478023DB0298464B46424605
:1062E0009A612770667021001C20A8476670A7700D
:1062F000267021005220A84721003E20A8472100F7
:106300003F20A84721002F20A84721001420A8479C
:106310001A4B42469A611A4B8022D2059A6180221A
:1063200012069A618022120290469A6180235B03D2
:106330004A469361277021005320A847114AD36928
:1063400041460B43D36104220F4B1A806B469E706B
:10635000DF7005236A4613705670694609200B4C9E
:10636000A04769460C20A04703B00CBC9046994654
:10637000F0BDC046396800000028004000290040F8
:106380008028004000040040003C0042E17F000003
:106390001723002A01D0180070478B00064A9B582B
:1063A000002B03D0834205D01D23F4E789008850D9
:1063B0000023F0E70023EEE77C1B002070B50022ED
:1063C000104B1A70002310491F25104E0D4C0AE087
:1063D0000D4908E023780133DBB223700F2B10D86E
:1063E00000211F2BF4D9280018400122824048695F
:1063F0001042EFD04A619B009B59002BEAD098478E
:10640000E8E770BD781B0020002400407C1B0020C2
:10641000064A137802210B43137001205368194276
:10642000FCD153681842F9D17047C046002400409F
:10643000064A137802218B431370012053681942D6
:10644000FCD153681842F9D17047C046002400407F
:1064500010B5124A516980239B000B435361104AC7
:10646000137801210B431370013101205368194245
:10647000FCD153681842F9D1094A137810210B4313
:106480001370084B19004031002204C38B42FCD129
:106490000822054B1A60054B984710BD00040040C8
:1064A000002400407C1B002000E100E0116400009B
:1064B0000023036043600122027283720132C272C0
:1064C00043727047F0B583B005000C001C4B984731
:1064D00001A900234B70CB7023790B70237A8B704A
:1064E0002078184B984700211F2D00D81649072205
:1064F0002A409200E77AA37A002B01D008231F4399
:10650000EB089B00CB18D8690F269640B043974004
:106510003A000243DA61637A002B0BD18A690123C6
:10652000AB40DB431B041B0C13408B61074B9847AC
:1065300003B0F0BD8A690123AB4013438B61F5E7DB
:1065400031640000E17F000000240040116400007D
:1065500010B51E4A936904210B4393611C4B202202
:10656000FF321A831A7D0523D20701D4180010BD0B
:1065700003781B02C022920013404178C901FF2218
:106580000A401343817849001E220A401343C2780F
:1065900092048021C9020A40134302791204C021E7
:1065A00089020A4013430A4A536093685B035B0FF6
:1065B000084908249C400C8093684B8043780B71F9
:1065C000138BDB05DB0F1B01D0E7C0460004004046
:1065D00000400041C000002030B5304A1488538884
:1065E00063438B420BD2802292012D4BCB189342F6
:1065F00005D92C4C18232C4A8A18A2420ED82B4BB2
:106600005C688022D20222435A602022FF321A8321
:106610001B7DDB0704D4254B5C600523180030BDCF
:10662000452829D88300224AD3589F461F4B1B8BED
:10663000DB0503D51D4B5C601023EFE7890849009B
:106640001A4BD96103E089084900184BD961FD2331
:1066500005001A3D1D4013D0A5231B021843134B00
:106660001880190001220B7D1342FCD0002D0FD0A1
:106670000E4B5C600023D1E70C4B5C601723CDE729
:106680000A4B59688022D2020A435A605B68E3E7EA
:10669000064A536807490B405360E9E7C0000020F1
:1066A00000C07FFFFF1F00000000C0FF004000414E
:1066B00064060100FFFFFBFFF8B52F4B1C885B88C9
:1066C0006343834207D22D4E18252D4BC318B34286
:1066D00006D8012600E00026631E1825184201D0C6
:1066E0002800F8BD013D9442FAD3264B1B7D123D94
:1066F000DB07F5D5244C234B1C801D0001242B7D8A
:106700002342FCD02024FF341E4B1C83002A2CD0B3
:10671000012305009D430023541EA44609E0CF1821
:106720007F783F023C432C8002339BB202359A4271
:1067300004D9CC5C6345F2DBA4B2F4E70E4B1B79C1
:106740000025002BCCD13F2ACAD8002E06D100222A
:10675000010004200D4B98470500C1E7002201000D
:106760001C200A4B98470500BAE7034B1B7900250C
:10677000002BEAD0B4E7C046C0000020FF1F000095
:106780000000C0FF0040004144A5FFFFD9650000A4
:1067900010B5224A138852885A43824207D2204CAD
:1067A000182220494118A14207D8012400E0002402
:1067B0009B00013B1822184201D0100010BD1A4B5B
:1067C0001B7D133ADB07F8D5174B2022FF321A83C3
:1067D00080084000D861002C1BD059688022D2026A
:1067E0000A435A605A68114A1A800F4901220B7DE8
:1067F0001342FCD0002C04D00B4A53680C490B40C8
:106800005360094B1A8B1C200240501E824192009B
:10681000D3E7084A044B1A80E7E7C046C0000020CF
:10682000FF1F00000000C0FF004000411AA5FFFF4D
:10683000FFFFFBFF02A5FFFF00B583B001AB802285
:106840001A700A785A704A789A708A78DA70190041
:10685000014B984703B000BDE17F0000F8B5DE466C
:1068600057464E464546E0B52B4B1B689A461E6878
:10687000DB8E5246928E1A409046B289738913403D
:106880001AB2002A08DBFF271F402AD00024012368
:106890009946FE339B4614E043465B0507D41F4BE5
:1068A000B3813CBC90469946A246AB46F8BD5346E0
:1068B0001B6B9847F3E75B461D40B5810134082CFC
:1068C000EFD023004D46A5402F42F4D0424622414E
:1068D00049461142EFD002339B0052469B589847DD
:1068E000E9E7DA050AD54346DB0503D480235B00DC
:1068F000B381D6E753469B6A9847F7E79B05D0D507
:1069000043469B0503D480239B00B381C9E75346CC
:10691000DB6A9847F7E7C046BC1B00200080FFFFFA
:1069200001680722CB691A42FCD17047F0B5D64600
:106930004F464646C0B58AB007000E0014003960C5
:1069400008009C4B9847052800D12BE10500123523
:10695000994AD169012383400B43D36109A9237B61
:106960000B70EDB22800954B98472800944B984740
:10697000207B0021934B984733681C209B0705D54B
:106980000AB01CBC90469946A246F0BD3368173841
:10699000DB07F5D4142333603B6898461800854B19
:1069A00098470500802308AA137000235370012222
:1069B00008A98A70CB70E069266A002800D1AEE091
:1069C00008AB1870022308AA5370000CC0B2110063
:1069D0007D4B9847002E00D1A6E008AB1E70022325
:1069E00008AA5370360CF0B21100774B9847A38A6F
:1069F000FB80E38A3B81237E8022002B04D1734BF2
:106A00009B789B07DB0FDA01A16823690B431343D3
:106A10002422A25C002A02D08022D2051343A26A5B
:106A200013432C22A25C002A03D1802292049142BB
:106A300002D18022120513432D22A25C002A02D02B
:106A40008022120413432E22A25C002A02D080224C
:106A5000D203134342461268134342461360802315
:106A60005B0053601235E8B2594B98470790FA2300
:106A70009B0022685A43914663689A46554DA84741
:106A8000009001914B465800A84702900391208E38
:106A9000A84704900591504F504A514B00980199D6
:106AA000B84702000B0004980599B8474D4E0022E4
:106AB0004D4BB047049005914846A84702000B0093
:106AC00004980599B84702000B00484D00980199B9
:106AD000A847029A039BB0470022454BA847029A59
:106AE000039B444DA847444B9847050080239B04D3
:106AF000A2689A421ED003004020FF2D00D93FE734
:106B000000240020FF251D40240625430004FF2308
:106B10001B04184005434346DD60002030E7002198
:106B20004046364B98474BE701214046334B984748
:106B3000060052E7FA26B60053465E4300980199D4
:106B400002000B00274CA047009001913000214B20
:106B5000984700222A4BB84702000B000098019981
:106B6000244CA0470022224B204CA047224B9847A0
:106B7000041E0CD031000798224B98470238001BA6
:106B80002B00FF2D0CD8FF28BCD94020F8E671005F
:106B9000481E079B9C4660441A4B98470138EFE714
:106BA0004020EDE6044A136A02210B4313621825C4
:106BB000D4E6C0465571000000040040E57E0000A8
:106BC000757E0000956F0000E17F0000002000410D
:106BD000097F000011F400007DE8000095D626E84A
:106BE0000B2E113EF5DB0000000024407DED00007F
:106BF0000000F03F15E20000A9F30000E16F000083
:106C00000000084009CD0000F8B504000768084EF0
:106C1000B04725682000B04783232B752B762B685F
:106C2000022293432B602000B04701233B60F8BD54
:106C30002169000003681A7E920707D502221A769E
:106C40005B8B9B074120DB17184070475A8B52071C
:106C500006D55968C02292020A435A601820F4E708
:106C60000020F2E730B50268002301240225117EDE
:106C700021420BD1117E294206D101339BB20189F9
:106C80009942F4D8122002E0002000E0002030BD3C
:106C900010B5046862688023DB021343636061629D
:106CA000024B98470123237610BDC046656C000057
:106CB000F0B5DE4657464E464546E0B583B0060081
:106CC000894605684C882B681B01DB0F9A464B7A76
:106CD000002B2BD16B68584A13406B604B461B7AD4
:106CE000002B27D14B461B885B004A46527A920301
:106CF0001343012213436B623000504B98470190BD
:106D00005346002B03D04B465B88012B3BD06B686E
:106D1000494A13406B60019B002B3AD0019803B0A5
:106D20003CBC90469946A246AB46F0BD897A444B9E
:106D30009847CFE74B461B885B004A46527A92033E
:106D400013438022120213436B6230003B4B98477F
:106D500001906B68384A13406B600028DED1300028
:106D6000384B984701900028D8D14B461B881B0A06
:106D7000782213435B004A46527A920301210A4368
:106D800013436B62B8E76A688023DB0213436B60CE
:106D9000C1E730002B4B984701900028BED1013C41
:106DA000A4B28046284B9B4615E0012C20D0300031
:106DB000264B984743465F1CBFB22823EB5C4A46EC
:106DC00052684146535430001C4B9847013CA4B2D2
:106DD000002815D1B8465C4514D06B8B9B0627D58F
:106DE000F37A002BE3D05346002BDED1002CDED10A
:106DF0006A688023DB0213436B60013CA4B2EAE7BC
:106E0000B8460190B37A002B09D130000F4B984758
:106E10002823EA5C4B465B6841465A547EE73000C3
:106E20000A4B98476A68C0239B0213436B60ECE7E8
:106E30004123019372E7C046FFFFFBFF656C000032
:106E4000916C0000356C0000FFFF0000216900001C
:106E5000F0B5DE4657464E464546E0B583B00600DF
:106E60000F0005684C88324B98477B7A002B1DD168
:106E70006B68304A13406B603B7A002B1BD03B8819
:106E80005B007A7A920313438022120213436B62EF
:106E90003000294B98470190002813D0019803B087
:106EA0003CBC90469946A246AB46F0BDB97A30004C
:106EB000224B9847DCE73B885B007A7A92031343C6
:106EC0006B62E5E730001E4B9847031E0190E5D149
:106ED000A046002420339946154B9B46164B9A46F4
:106EE000444515D06B8B4A4613421DD03000D8471D
:106EF0007B681A5D2823EA543000D047002806D169
:106F00006B8B01345B07EBD51E23019300E00190EE
:106F1000B37A002BC2D03000054B98476A68C02373
:106F20009B0213436B60B9E741230193B6E7C04668
:106F300021690000FFFFFBFF656C0000916C000001
:106F4000356C000010B501238372C372014B984762
:106F500010BDC046B16C000010B500238372013330
:106F6000C372014B984710BD516E000010B549081F
:106F700040230024814202D2180010BD1C00091ACF
:106F8000631C9BB28842F9D94023FF2CF4D81480AB
:106F90000023F1E710B582B004000E4B1B78002BE4
:106FA00007D0002905D10B4B5B78834210D01D2000
:106FB0000CE001A90C701120074B98471120074BDA
:106FC0009847044B5C7001221A70002002B010BD7B
:106FD0000020FBE7C8000020E57E0000757E000071
:106FE000404B984232D00AD93F4B98424ED03F4B4B
:106FF00098425BD03E4B984238D0002070478423A3
:10700000DB0598420CD03B4B9842F6D1012917D0B2
:1070100000295DD0022915D0032915D00020EDE705
:10702000012907D0002951D0022905D0032905D014
:107030000020E3E73048E1E73048DFE73048DDE7AC
:107040003048DBE73048D9E73048D7E7012907D097
:1070500000293FD0022905D0032905D00020CDE723
:107060002B48CBE72B48C9E72B48C7E7012907D0B6
:10707000002931D0022905D0032905D00020BDE721
:107080002648BBE72648B9E72648B7E7012907D0D5
:10709000002923D0022905D0032905D00020ADE71F
:1070A0002148ABE72148A9E72148A7E7012907D0F4
:1070B000002915D0022905D0032905D000209DE71D
:1070C0001C489BE71C4899E71C4897E71C4895E734
:1070D000032093E71B4891E71B488FE71B488DE788
:1070E0001B488BE7000800420010004200040043E8
:1070F000000C0042000400420300050003000600EB
:10710000030007000300010003001E0003001F002E
:107110000300090003000A0003000B000300110034
:10712000030012000300130003000D0003000E0013
:1071300003000F00030017000300180003001900EC
:1071400003000400030008000300100003000C000B
:107150000300160030B587B00B4B6A4632CB32C203
:1071600032CB32C2009B83420BD001239A00694686
:107170005258824206D00133062BF7D1002007B0C7
:1071800030BD0023D8B2FAE77C07010010B5024BEE
:107190001B680020984710BDCC00002010B5024BA2
:1071A0005B680120984710BDCC00002010B5024B51
:1071B0009B680220984710BDCC00002010B5024B00
:1071C000DB680320984710BDCC00002010B5024BAF
:1071D0001B690420984710BDCC00002010B5024B5D
:1071E0005B690520984710BDCC000020F0B5D6465D
:1071F0004F464646C0B58AB006000F001400316005
:107200000B689B070AD40B680520DB0700D497E0C6
:107210000AB01CBC90469946A246F0BD936A0593FD
:10722000D36A0693136B0793536B089300250AE008
:1072300038009A4B98470EE00F231840814530D113
:107240000135042D31D0E9B2AB0002AA0C2012188E
:10725000D0580028ECD0431CF2D001040B0C994606
:10726000000CC3B29C460023020605D463465B09AA
:10727000DB018B4A904643441F2260460240981827
:1072800040300078824680205146C907D6D5520842
:107290009B1830331878C0B26346DB07CCD50009A1
:1072A000CCE7002333601C20B2E711207D4B9847C8
:1072B00022780025012A26D06368A2681343E26879
:1072C00013432B43227C617C002901D080210B4396
:1072D000A17C002902D0802189020A43E17C002997
:1072E00002D0802189000A43217D002902D080211B
:1072F00089010A433968022003438B4217D00023D7
:1073000033601C2084E704AA0100A069664B9847FB
:1073100003001720002B00D07AE73B7BDBB204AAE6
:10732000127805309A4200D072E70C35C4E77B68CA
:107330009342E4D123787371237CB371002067E713
:1073400008005A4B9847052800D19FE003001233EC
:107350005749CD69012282402A43CA6109A92425DF
:10736000625D0A70DBB201931800524B9847019896
:10737000514B9847605D0021504B98472378012B73
:1073800019D03368984604AB80221A7000225A70D4
:1073900001219970DA702378002B01D104AB9A7027
:1073A000A36A0593E36A0693236B0793636B0893C1
:1073B000002705AD11E03B680C2213433B60E0E77A
:1073C0004046364B98470DE004A90870000CC0B247
:1073D0003B4B98470137042F07D0F9B2BB005859EF
:1073E0000028EDD0431CEFD1F4E723787371237CA0
:1073F000B371A37CF371237D3372002202ABDA8078
:107400002378012B2AD06368A2681343E2681343F0
:10741000217C627C002A03D12A4A9278920701D506
:1074200080221343A27C002A02D0802292021143C0
:10743000E27C002A02D0802292001143227D002AA1
:1074400002D0802292011143424612681343424601
:10745000136053680B4353600020D9E63068134B28
:1074600098471230C0B20F4B9847010002AB9A1DEB
:10747000A0690D4B984703001720002B00D0C7E6EA
:1074800002AB06331B7842461373BCE7084A136A03
:1074900002210B431362182360E7C046E16F00002E
:1074A00000280040097F00006D6F0000557100004A
:1074B00000040040E57E0000757E0000956F00002E
:1074C000E17F00000020004110B544791523012C14
:1074D00001D0180010BD047A0023002CF9D1002A35
:1074E00058D04B78002B44D003681B7EDB0710D4A8
:1074F0000A78D1090023002904D15309DB012E4960
:107500008C4663441F21114001228A409A61052361
:10751000DFE70A78D4090023002C04D15309DB01EA
:10752000254CA44663441F2414400122A2405A6102
:1075300003681A7ED20701D58A789A62C27900233D
:10754000002AC6D102680421137E0B42FCD0117EB2
:1075500000234907BDD5538B5B0701D50423538313
:107560008379012B02D0936A0023B2E7936A002348
:10757000AFE70A78D1090023002904D15309DB01C0
:107580000D498C4663441F21114001228A405A61F3
:1075900000239EE70A78D1090023002904D153096A
:1075A000DB0105498C4663441F21114001228A40BA
:1075B0009A6100238DE7C0460028004010B50828D6
:1075C00003D880001D4B1B589F46002034E01C4B05
:1075D000186931E01B4B187D0007800F431C1A48C7
:1075E000584329E0164B586926E0154B1B680020CC
:1075F0009B0721D5134980225200CB681342FCD04F
:107600000F4B1A6824231340042B01D00F4813E0BA
:1076100000200F4B98470A4B9B681B041B0C5843D8
:107620000AE02823074AD35C00209B0704D5044BBB
:10763000D86801E08020000210BDC0469407010018
:10764000E4000020000C004000093D00006CDC025A
:10765000097F000070B50B4C237D85784678027851
:107660000321114089000C2293430B430B3A324013
:10767000920140218B431343ED017F2213402B43A2
:10768000237570BD000C0040F0B5CE46474680B56E
:10769000194B99469B6941788C4605780679C778DD
:1076A00044798078012108408000042293430343F9
:1076B00060460840C000043293430343380008404A
:1076C00080014027BB43034330000840C0018026AF
:1076D000B3430343072005402D02084803402B43D2
:1076E00021400903064803400B434A4693610CBC02
:1076F00090469946F0BDC04600100040FFF8FFFFDD
:10770000FFEFFFFFF0B5D6464F464646C0B5204BCB
:107710009A465B69457801784C424C41A146817894
:107720008C46C1788846467A077A847A4068194937
:1077300048610121484680000422934303434046A8
:107740000840C000043293430343604608400001F0
:107750000832934303430F40BF01402083433B4320
:107760000E40F601403083433343793805402D0203
:10777000094803402B4321400903084803400B43B9
:10778000524653611CBC90469946A246F0BDC04685
:1077900000100040E4000020FFF8FFFFFFEFFFFFB4
:1077A00010B5837A9B061B0C82899205920D1343B8
:1077B0001A494B60037A427A13438288C488224371
:1077C00013434278D20113438278920113430B6032
:1077D0000378042B11D0202B0ED1837B9B06428A89
:1077E0001343028A12040E490A4013430B4A936062
:1077F00011680C4B0B43136010BD837B9B06428AC0
:107800001343028A120406490A401343034A936051
:10781000136804210B431360EEE7C046E400002028
:107820000000FF0324040000F8B50400C568037DD0
:10783000012B4ED0A368180129002A4B98470F222C
:10784000024003092178C9016678B6013143C9B203
:10785000254E2827F1551104013B1B051B0D0B4339
:10786000F362370038260421BB5D0B42FCD1A378BC
:107870001B03E178C9000B43217989000B43A17CEC
:10788000032631400B43218A0904184F39400B432A
:10789000E17C0902E027FF0039400B43277D3F01CF
:1078A000302139400B4310490B63637D1E40342364
:1078B000CE540F0038260821BB5D0B42FCD10F23AC
:1078C000984382186A43637D0433DA40084BDA60D8
:1078D000F8BD018A013149002800024B9847050094
:1078E000A8E7C04609CD0000000C00400000FF07DB
:1078F000E4000020082803D88000294B1B589F462D
:1079000017204BE0274A137D02210B4313750020FB
:1079100044E0254A936902210B43936100203DE036
:10792000204A138A02210B431382002036E01E4AAC
:10793000536902210B43536100202FE01B490B6860
:10794000022213430B60174B1A831900FE32CB68D7
:107950001342FCD0154A9168124B19625268DA61E1
:1079600000221A8319000132FF32CB681342FCD087
:107970000E4B1B689BB20B4A138300200EE0094993
:1079800028228B5C022003438B5408003821263ABE
:10799000435C1342FCD1002000E000207047C04649
:1079A000B8070100000C004000100040E400002077
:1079B000082832D880001A4B1B589F46194A137D5D
:1079C00002218B43137500207047174A93690221E7
:1079D0008B4393610020F7E7124A138A02218B43FD
:1079E00013820020F0E7104A536902218B43536150
:1079F0000020E9E70D4B1A6802218A431A601B68D0
:107A00009BB2084A13830020DEE7064928228B5CDC
:107A1000022083438B540020D6E71720D4E7C046CA
:107A2000DC070100000C004000100040E4000020D2
:107A3000F0B5CE46474680B597B080225200964BAF
:107A40009A60FD3A954B9A60954A53681E218B4384
:107A50001A390B4353608023DB059B78022B09D036
:107A60008023DB0501229A7101329A701A00937902
:107A7000002BFCD013A80023037080221202426066
:107A800083700122C27083720421417043720272BA
:107A9000844B98470520844B984784490122CB6842
:107AA0001A42FCD0814A536980210B43536111A8CB
:107AB000012545708570057107230370002444710A
:107AC000C5707B4B98470420774EB04702A94D60A4
:107AD0004C700C724C7203230B700020754B98474E
:107AE0000620754B984701A8447005708470734B4D
:107AF00098470620B04768491022CB681A42FCD04C
:107B000002A901234B6000244C7005330B700C72EA
:107B10004C720020674B98475F4A137D80210B43CE
:107B200013750CAB00229C80DC801A725A729A701A
:107B3000413999813B3919705A70614B1B689B0E12
:107B40003F2B00D1A5E00CA883725E4B4382072334
:107B50008373383303825C4B98475C4B984702AC85
:107B600001239946636000256570257265720433B0
:107B70002370210001204F4FB8470120544EB047D9
:107B80006570062323702572657202339846636020
:107B900021000220B8470220B04765702572657247
:107BA0004346237002239846636021000320B847B0
:107BB0000320B0474B46237021000020454DA847C5
:107BC0000020454CA0470BA943460B700120A84755
:107BD0000120A0470720344B98472F49D02212019B
:107BE000CB6813409342FBD105A8002343708370F8
:107BF000C370037101220282013202754375C3749E
:107C000083740370354BC360354B8360354B9847A5
:107C10000820254B984720483C210322435C134011
:107C2000032BFBD11C492822885C833B03438B54E4
:107C30002D4C0123A3716371237102A94B600023B2
:107C40004B700B724B7207330B700020194B984727
:107C500000201F4B98470020244B98472179C9B238
:107C6000234B9847234B98420ED88023DB059B7803
:107C7000002B09D08023DB0501229A7100229A7023
:107C80001A009379002BFCD017B00CBC9046994693
:107C9000F0BD203B57E7C046000C004000140040F8
:107CA0000040004105770000F5780000001000401A
:107CB000897600001D7D0000B17900005576000036
:107CC00020608000B9050000A1770000F97C000069
:107CD000C97D0000E57E0000757E000040420F0077
:107CE000804A5D052978000000040040097E0000FC
:107CF00009CD0000001BB700064A536940210B4321
:107D000053610122044B1A7019000B781342FCD105
:107D10007047C046000400400018004070B50400E1
:107D20000D784B78002B02D08023DB001D434B7A6B
:107D3000002B02D080231B011D43486801280FD966
:107D4000431E184231D102282DD9022300220132CC
:107D50005B009842FBD880235B011D43120415434E
:107D60000B7A002B02D080239B011D430426A640E2
:107D70001149124A4B6813401E42FBD1104B9847E1
:107D8000A4000D4B9C466444226A80235B001A4089
:107D90002A4322626146094A4B6813401E42FBD1C6
:107DA000084B984770BD0022D5E7000480239B0054
:107DB00018430543D4E7C04600180040FC07000004
:107DC000356200007562000010B504000422824094
:107DD00009480A4943680B401A42FBD1084B9847AF
:107DE000A400054B9C466444226A80235B00134335
:107DF0002362044B984710BD00180040FC070000A8
:107E00003562000075620000F8B50400042282406B
:107E10001248134943680B401A42FBD1114B984753
:107E20000E4F0834A400E0590007000F0E4B98478E
:107E30000600E559ED04ED0FE459240C0B4B98476F
:107E4000002D07D1012C07D921003000084B98479D
:107E5000060001E00134E6403000F8BD00180040A3
:107E6000FC07000035620000BD750000756200006F
:107E700009CD000010B50400094B9847A000094B3C
:107E80009C4660448022835840210B4383504031FC
:107E9000403A43581A42FCD0034B984710BDC046A5
:107EA00035620000001800407562000010B5040043
:107EB000094B9847A000094B9C4660448022835898
:107EC00040218B4383504031403A43581A42FCD101
:107ED000034B984710BDC0463562000000180040B3
:107EE0007562000070B504000D00054B98472A78B4
:107EF0000F2313402034A400024AA35070BDC04693
:107F0000AD7E00000018004010B50400064B9847F5
:107F10002034A400054BE4582407240F044B984751
:107F20002000044B984710BD356200000018004047
:107F300075620000097E000030B5D378002B35D182
:107F40001378802B29D01B068024640223435478A5
:107F50000225AC4306D19478002C20D18024A402C1
:107F6000234341605478013C012C1CD90D042D0C95
:107F7000A024E4052C431C4384620D0CD024240669
:107F80002C431C438462D478002C22D15B031CD583
:107F90009378012B1ED0416117E00023D7E7C0245E
:107FA000E4022343DDE70D4C2340DFE741600C048E
:107FB000240CA023DB05234383620C0CD0231B0677
:107FC00023438362D378002B03D15378013B012BE9
:107FD00002D930BD8161F8E78160FAE7FFFFFBFF5E
:107FE00010B50A00C1090023002904D14309DB01AF
:107FF00005498C4663441F2420400121814018001C
:10800000024B984710BDC04600280040397F000051
:108010007047FFFF10B5054B9847054B9847054B38
:108020009847054B9847054B984710BD317A00009B
:10803000A562000011800000516400001180000062
:10804000931C9B001950022A09D0032A0CD001234B
:1080500093401A00037E1343037600207047037E8B
:10806000102213430376F8E7037E2022134303769E
:10807000F3E7FFFF70B58000164BC45823689D7A64
:10808000227E637E13401D40EB0706D4AB070BD462
:10809000EB0610D4AB0615D470BD2000A36898473A
:1080A000012322689372F1E72000E36898470223D6
:1080B00022689372ECE72000236998471023226816
:1080C0009372E7E7200063699847236820229A7239
:1080D000E2E7C046C01B002010B50020014B9847C6
:1080E00010BDC0467580000010B50120014B9847B7
:1080F00010BDC0467580000010B50220014B9847A6
:1081000010BDC0467580000030B585B001AA0B4B8C
:1081100032CB32C2019B98420DD0029B984208D0CC
:108120000023039A824202D0180005B030BD02330A
:1081300002E0012300E00023DBB2F5E7280801009C
:10814000F0B5C64600B58AB004000D001600080060
:10815000AA4B9847804609AB1B221A705A7002320C
:108160009A7003A9A64B0C330A0083CB83C283CB3E
:1081700083C20023A360E360236163612376637697
:1081800043469A009F4BD45025603423F35CA3767A
:10819000F378082B08D023712B680520DB0708D55E
:1081A0000AB004BC9046F0BD17204246D207F7D46F
:1081B000F1E7EB7A17309B07F2D42B689B07EFD4DB
:1081C000337C002B12D1337F002B1BD143465A0046
:1081D00003A9531C9B0058584346DB005B58D9B297
:1081E000042923D88B008849CB589F4602A9012334
:1081F0008B700022CA70327E0A704B70307D834BC8
:108200009847E0E702A901238B700022CA7024324C
:10821000B21812780A704B701F33F31818787B4B22
:108220009847D3E77A494B6918434861F378082B9C
:1082300000D185E001A933780B7009AB42469F5C01
:108240003800744B98473800734B9847F378F279AD
:108250001343B2881343727A002A02D0802252025A
:108260001343B27A002A02D0802292021343F27A98
:10827000002A02D0802252031343327B002A02D00C
:1082800080229203134371788901B278D20111439D
:10829000194322681369002BFCD1296022681369F5
:1082A000002BFCD1B3792B73717B4B1E9941890054
:1082B000B37B002B01D00123194322681369002BE3
:1082C000FCD1FF332B71002904D022681369002BE5
:1082D000FCD16971337A6B7322681369002BFCD16E
:1082E0002379042B59D0082B74D01720002B00D0F1
:1082F00056E71369002BFCD1338DAB8222681369DA
:10830000002BFCD1738DAB8322681369002BFCD149
:10831000B38DEB83002043E73D498B6918438861A7
:1083200084E73B49CB691843C8617FE738490B6A4A
:10833000184308627AE7364B596A0843586275E772
:1083400043460133022B00DD74E703ABD11C8900E7
:10835000C95802329200D358DAB2042A00D969E728
:1083600093002E4AD3589F46294A536919435161B5
:1083700060E7274A9369194391615BE7244AD3690F
:108380001943D16156E7224A136A1943116251E732
:108390001F4B5A6A114359624CE71369002BFCD1F9
:1083A0002833F35C2B7522681369002BFCD1293329
:1083B000F35CEB7622681369002BFCD12A33F35C63
:1083C0002B7722681369002BFCD12B33F35C6B777E
:1083D0000020E5E61369002BFCD1B36A6B612268CB
:1083E0001369002BFCD1F36AEB6122681369002B3F
:1083F000FCD1336B2B620020D2E6C046098100001D
:1084000028080100C01B002000080100E17F0000D7
:1084100000040040E57E0000757E000014080100A5
:1084200002681369002BFCD1137101680B69002BE2
:10843000FCD18033537153795BB2002BFBDB0268B4
:108440001369002BFCD10379042B05D0082B09D02C
:108450000020002B03D07047107DC0B2FBE7908A4C
:1084600080B2F8E75069F6E710B504682369002B7D
:10847000FCD10379042B06D0082B28D0002B13D075
:108480001723180010BD17230129FAD8837E002B6B
:1084900005D0D2B2611830310A700023F1E7D2B2B0
:1084A000641822770023ECE717230129E9D8837E9B
:1084B000002B05D092B2183149000A530023E0E79F
:1084C00092B20C3149006418A2800023D9E7172327
:1084D0000129D6D8837E002B05D106318900641886
:1084E00062600023CDE70C3189000A510023C8E700
:1084F000FEE7FFFF10B51A4A1A4B9A4211D01A0034
:10850000194B9A420DD2194A03339B1A9B08013327
:108510009B000022134812498C58845004329A421E
:10852000FAD1134A134B9A420AD2D34311495B182A
:1085300003218B4304339B18002102C29342FCD1D8
:108540000D4AFF210D4B8B4393600D4A53687F39D1
:108550000B4353600B4B98470B4B9847FEE7C046C5
:10856000DC100100000000209C000020040000201E
:108570009C0000209021002000ED00E000000000A1
:108580000040004119F500001DC80000F0B5C646C6
:1085900000B50C00904600280FD1002A11DD8F187D
:1085A000094E0A4D306821002B6898470134BC42BF
:1085B000F8D1404604BC9046F0BD01235B4298468A
:1085C000F7E78046F5E7C046D41B0020CC1B00200F
:1085D000F0B5C64600B50E0015000138022810D8C7
:1085E000002A11D000240C4B98460C4F43461868C3
:1085F000315D3B689847002808DB0134A542F5D17E
:1086000006E00124644203E0140001E00124644216
:10861000200004BC9046F0BDD41B0020D01B0020DD
:108620000300064A1268002A04D0044A1068C318DE
:10863000136070470249014A1160F6E7FC00002010
:108640009041002001204042704780239B014B60F5
:1086500000207047012070470020704700BEFEE7F1
:108660007047012040427047F0B5C64600B584B05F
:1086700014001F00294BCB1840031D18002F1AD0DF
:10868000274B5A1E95421CD87A1993421FD3C919F9
:1086900080239B01994220D8224B98463E1C102FE4
:1086A00000D91026B6B2320029006846C047002E15
:1086B00028D000231FE01C4B1C4AD9211C481D4C0C
:1086C000A0471D4B194ADA2119481A4CA0471B4BE9
:1086D000164ADB211648174CA047194B134ADC21D8
:1086E0001348144CA047FF21914212D10133DBB251
:1086F0009AB2964206D96A46D25C002CF3D0217811
:108700000134F1E7BF1BBFB2AD19002FC6D1012064
:1087100000E0002004B004BC9046F0BD0021000041
:10872000006100007FF500004C080100D009010045
:108730005C080100BDF400009C080100B8080100BD
:10874000EC08010010B50B4AFF231A4206D10A4B70
:108750000A498C466344934206D110BD084B094A2E
:1087600059210948094CA047094B064A5D21064892
:10877000064CA047002100000061000000C0FFFF80
:108780001C0901008C0901005C080100BDF4000017
:108790004C09010070B5150044031348081824184B
:1087A000124A501E84420DD8E018824210D3C918D4
:1087B00080229201914211D81A00210028000C4B0E
:1087C000984770BD0B4B0C4A72210C480C4CA047CB
:1087D0000C4B094A73210948094CA0470A4B064A29
:1087E00074210648064CA0470021000000610000EB
:1087F0007FF500009C080100980901005C08010059
:10880000BDF40000B8080100EC080100F0B5DE4638
:1088100057464E464546E0B593B001929A46464CBF
:108820000C1940032518002B47D0444B5A1E954283
:1088300049D85246521993424BD3D34651448023D0
:108840009B0199424BD83E4B1B68002B00D09847A8
:108850003F272F40EC1B4026F61B5E4500DD5646A9
:10886000B3B29B464022FF2102A8364B98473B00FB
:1088700002AA9446634400933604370C3A000199E7
:108880001800314B9847314B9847314E402202A98E
:108890002000B0470528F9D02E4B984753465A463A
:1088A0009E1AB6B2EC19019B9946B944002E3BD0F2
:1088B000244B9B46244B984631E0274B274A8A217C
:1088C0002748284CA047284B244A8B212448254C74
:1088D000A047264B214A8C212148224CA047244BFB
:1088E0001E4A8D211E481F4CA0479FB24022FF21E7
:1088F00002A8D8473A0049460098C047134B98470A
:10890000134D402202A92000A8470528F9D0114B99
:108910009847F61BB6B2E419B944002E04D0331CB4
:10892000402EE2D94023E0E713B03CBC9046994684
:10893000A246AB46F0BDC046002100000061000029
:108940000001002091F500007FF500003562000075
:10895000B9660000756200004C080100A80901001A
:108960005C080100BDF400009C080100B80801008B
:10897000EC08010070B544030C482418FF239C4305
:108980000B4B013B80229201A6189C4207D8094D4F
:108990002000A8470134FF34B442F9D170BD064B22
:1089A000064AC2210648074CA047C04600210000E5
:1089B00000610000916700009C080100B8090100F7
:1089C0005C080100BDF4000010B513000022014C4A
:1089D000A04710BD6986000010B5014CA04710BD2E
:1089E0006986000010B5054B1B68002B04D0984722
:1089F00001235840C0B210BD0020FCE774020020E3
:108A0000012909D0002902D002290DD070470A4B54
:108A10001A8880181880F9E7074A13880F33C0189E
:108A20000F2398431080F1E7034A13883F33C0189F
:108A30003F2398431080E9E77A02002030B50029EF
:108A400019D0FF2413E02300150A6B401D096B4069
:108A500012025A401D036A405B015A4092B2030061
:108A60005D1EAB41C018013989B2002903D000282E
:108A7000E9D00378E8E7100030BDFFFFF0B5DE462F
:108A8000574680B589B0019002919346109A002A0A
:108A90000DD092469A445B449DB25E46029C0120F2
:108AA000AB453ED0224F002C08D1002039E00022F7
:108AB0009246F0E704AB5C89002C31D0102304AA65
:108AC00021000198B84704AB9A88AA42F2D2DB8809
:108AD000D3189BB2B342EDD9AB4201D21E00E9E7F5
:108AE000A91A89B2B24215D904AB5B8903930B0072
:108AF000ED1AADB25246002A08D010340919D21A24
:108B00009246C91A89B20198094CA047AE420DD0CD
:108B1000039CC8E7AB1B9BB25E46029A0392E7E751
:108B2000002009B00CBC92469B46F0BD0120F8E73E
:108B300095870000F0B5DE46474680B587B00490C3
:108B400005919579D3791B021D43177953791B023F
:108B50001F432C0A64B2002C2FDB1C4B03931C4BCD
:108B6000984611E0002D2AD01A4B00932B003A00B2
:108B700005990498184EB047002820D0290015E028
:108B8000013C64B2631C1AD0002CEBD0013DFF3DC8
:108B9000ADB2104B009380235B003A000599049816
:108BA0000D4EB0470028EBD0802149007F18BFB29E
:108BB000039A0848C0470390E2E7044B03930398E5
:108BC00007B00CBC90469B46F0BDC046FFFF0000BE
:108BD0003D8A0000340100207D8A000070B5164BEC
:108BE0001C78002C26D0154B1B88834216D00123FD
:108BF000124EDAB294421BD91D00591C9A00B25A87
:108C0000824201D00B00F4E79B000C48C018AD0075
:108C10000A4B5D196B88002B03D070BD07480025F7
:108C2000F5E7074B074A8C21FF310748074CA0475F
:108C30000020F2E70020F0E7700200205002002040
:108C40004C0A0100340B0100680A0100BDF4000069
:108C500010B5054B9847002804D08378C0780002EF
:108C6000184310BD0020FCE7DD8B000010B50400A8
:108C70000E4B984700280BD10D4B1B78072B0ED8B5
:108C8000591C0B4A11700B489B001C52C01810BD98
:108C9000094B0A4ACC21490009480A4CA0470A4B13
:108CA000064A9A21FF310648064CA047DD8B00009A
:108CB0007002002050020020F4090100440B010062
:108CC000680A0100BDF40000100A010010B50B4B4A
:108CD000984700280BD00A4B19780139C9B219708E
:108CE0008900084B59180422074B984710BD074BC1
:108CF000074AD32149000748074CA047DD8B0000F5
:108D000070020020500200207FF50000300A0100B0
:108D1000540B0100680A0100BDF4000010B5054BBA
:108D20009847002800D010BD034B1878034B984794
:108D3000F9E7C046E58900000900002075890000B8
:108D400010B5084C2078084B984720788022920173
:108D50000021064B9847002803D080225200044B84
:108D60001A8010BD7802002075890000C9890000B2
:108D70007A020020F0B583B001900D001600074F75
:108D8000387813000A000199054CA0473878330061
:108D90002A000199034CA04703B0F0BD78020020DF
:108DA0000D880000D989000010B586B001AC4123C0
:108DB000A3701333E370013B2371053B63712833C8
:108DC000A371443BE3710390C0430490084B1B889C
:108DD0002382084A10216B46981D074B9847208034
:108DE000122221000020054B984706B010BDC04656
:108DF00072020020FFFF00003D8A0000758D000018
:108E0000F8B504000D00214A1388CB189BB21380DB
:108E1000FF2B2ED91E4B1A88801880256D00AA1AA8
:108E20001C491D4B98471D4B18882A0021001C4BDC
:108E30009847051E27D0002180204000194B9847F5
:108E4000134B188800221A80104B1E88013EFF3EEB
:108E5000B6B21E80002E16D080214900091A89B2B0
:108E60000C4B5918320020000B4B9847084B1E80C2
:108E700009E0074E3788C0190A000649064B984793
:108E8000ED19358001252800F8BDC04630010020CD
:108E900004010020340100207FF500007A02002048
:108EA000758D0000018A0000F0B5DE4657464E463B
:108EB0004546E0B5D5B07B487B4B984700237B4ABD
:108EC00013807B4A13807B4A13807B4A13807B4B41
:108ED0001B781F00039312230FAA00213800784C3F
:108EE000A047119B0993754C2500260008E03370BC
:108EF000724B1B78BB420BD0724B984700280DD1A8
:108F000023780133DBB2012BF1D900232B70EFE77B
:108F10006D4B6E4A6E496F486F4CA0476F4B1B7884
:108F2000002B6AD0002306930133FF3399466A462B
:108F3000D3826B4B10330893069B07939F00694BBA
:108F40009C4667447B881D00049310230BAA2900CC
:108F5000039880465A4CA0470BAE0023B380348957
:108F6000F4807381B3811034A4B2320029004046EA
:108F70005D4B984730805D4A0E210BA85C4B9847AB
:108F8000F081574D4A46FF2128005A4B98472B0045
:108F900007CE07C332681A60574B1B88454A1288B0
:108FA0009B187B804C4504D9002610234C4A9046E0
:108FB00068E00BAB1B89089A009200220499039881
:108FC0004E4EB047002863D0079B9D00454B5D196E
:108FD000494B1B88374A12889B186B80210014A8C4
:108FE000474B9847002853D0069B0133DBB21A0049
:108FF00006933A4B1B7893429ED82F4B1A88002A2F
:1090000006D03D4B188814A93E4B9847041E40D00B
:10901000294B188800213C4B9847374B1A883B4B0B
:109020001A80099801383A4B9847041E31D0022122
:109030000020354B9847374B6A46127B1A70364DE5
:109040002800194B98472800344B984721E0ADB2CF
:10905000EF1ABAB2934643440093130032000499C6
:109060000398264FB847002812D0290014A8244B93
:10907000984700280CD0641BA4B25E44B6B200230B
:10908000002CB1D0251C4C45E1D96A46D58ADEE7D3
:109090000024200055B03CBC90469946A246AB4601
:1090A000F0BDC0461C010020F9BC000048020020B1
:1090B0004A02002004010020300100207802002034
:1090C00095870000418D0000EC090100700B010044
:1090D000D5030000680A0100BDF400007002002002
:1090E0003401002050020020358B0000FFFF0000FB
:1090F0003D8A000091F500007A0200207D8A000080
:10910000018E0000758D0000018A000072020020AF
:10911000A98D0000090000203402002065BD000078
:1091200010B5074B9847002800D010BD054B984755
:10913000054B064A2C21FF310548064CA047C04686
:10914000E5890000A98E0000EC0901001C0B01005C
:10915000680A0100BDF4000010B5124B1A88802384
:109160009B019B1A9BB2834203D30F4A93420AD9B5
:1091700010BD0E4B98470028FAD10D4B0D4A0E49F1
:109180000E480F4CA0470F480F4B98470028EFD1CF
:109190000C4B0E4A1A610E4A5A609A6000221A73EA
:1091A000E6E7C0467A0200200F080000A98E000002
:1091B000EC090100800B01004E040000680A010068
:1091C000BDF400001C01002039BD00002191000009
:1091D00010270000F0B5DE4657464E464546E0B53E
:1091E0008BB0774B98470523002807D018000BB0A9
:1091F0003CBC90469946A246AB46F0BD714B1888E0
:10920000002846D1704B1B88002B00D1D0E06E4B5C
:1092100018886E4B98478346002800D1CAE08278B0
:10922000C3781B02134319000393694B187810236A
:1092300006AA684CA047634B1A88002A2ED0664BBA
:109240001B88059306AB1B8906A90A81191C93424A
:1092500000D9111C8BB206AA002191801089D08000
:10926000518191811C001034A4B25C4961CA61C172
:1092700012680A6080225200944239D900261023D5
:1092800080225200914669464A82514A92461A000B
:1092900088E0103080B2524B9847B8E706AB188987
:1092A000103080B24E4B9847474B1888474B984731
:1092B0008346002815D08278C3781B021343190017
:1092C000039306AC424B187810232200414DA84767
:1092D000414B1B88059323893A4A1288002ABAD049
:1092E000B2E7404B404A9121C9004048404CA0475A
:1092F000374A1078394A10320092002203993D4CC7
:10930000A0470123002800D170E7344906AB0A00CA
:10931000180070C870C200681060DA88103292B20B
:109320002D4B1888344B98470023002800D15DE767
:1093300006ABD888103080B20221304B984700230A
:10934000214A13801F4A13805B46059999700B0AC6
:109350005A46D370002349E7ADB2AF1ABBB2190029
:10936000534618781D4B9B18009302910B00320056
:109370000399204FB84700281ED0174B18882A00A1
:1093800016491D4B9847002818D0022128001B4B76
:109390009847641BA4B202998C466644B6B2002278
:1093A000002CCCD0251C4C45D6D96B465D8AD3E722
:1093B00000231BE7002319E7012317E7002315E724
:1093C000E58900004A02002048020020DD8B0000F1
:1093D00078020020958700007A02002034010020E6
:1093E00059910000DC090100980B0100680A010096
:1093F000BDF400007D8A0000758D0000018A000028
:1094000010B5014B984710BDD5910000F0B5DE4670
:1094100057464E464546E0B583B004008A46464D61
:1094200080225200FF212800444B9847444EA379E4
:10943000E1790902194332005046424FB847207083
:10944000000A607032000E212000B847A073000AA5
:10945000E0731022210028003B4B9847A379E27962
:1094600012021A4315001035ADB25346002B12D02C
:1094700080235B009D4209D90026102780235B00D2
:109480009B466A46D3802C4B994645E051462A4874
:1094900010302D4B9847A379E27912021A4310320B
:1094A00080235B009A4200DD1A0092B2274B188895
:1094B0002149274B98478046002833D0A379E0798B
:1094C00000021843103080B20221224B98474046D8
:1094D00003B03CBC90469946A246AB46F0BDA4B250
:1094E0004B46D819E21B53469919174B9847174B0F
:1094F000188822004946164B984780460028E6D037
:1095000002212000134B98472D1BADB2E41B3619E6
:10951000B6B20027002DDAD02C1C5D45DFD96B4692
:10952000DC88DCE7A379E07900021843103080B2D0
:109530000221084B9847CAE73401002091F500004A
:10954000FFFF00003D8A00007FF500007A02002046
:10955000758D0000018A0000F0B5CE46474680B503
:1095600091B00022B34B1A70002401235B4299464C
:10957000FF27B14E12230BAA00212000B0470D9DFA
:109580000E9B01936B4001331DD00134E4B2022CD9
:10959000F0D1FF2F57D0A94B1F704346012B00D1AC
:1095A0007BE04346022B6AD180225200A44B1A80F2
:1095B000122306AA002138009F4CA047A04DA14BC2
:1095C00098462E000FE102AB26229B181B78412BF8
:1095D000DBD102AB01329B181B78542BD5D102ABE7
:1095E00001329B181B78532BCFD102AB01329B1851
:1095F0001B784E2BC9D102AB01329B181B78762BFE
:10960000C3D102AB01329B181B78312B06D102ABC0
:109610009B8C002BB9D1012398460FE0322BB4D19B
:10962000894A1021262002AB9C466044874B98470C
:1096300002AB9B8C8342A8D1022398464D45A4D20D
:10964000A9462700A1E700227C4B1A70804C814E6E
:10965000814D06E0794A13780133DBB21370012B98
:1096600015D8A0470028F5D001235B4233800220A3
:109670004042A8470028EDD000226E4B1A7001220C
:10968000764B1A7011B00CBC90469946F0BD744BE5
:10969000744A75497548764CA0471022684B1A8069
:1096A0001021664E644D694F72E006AB1B88002B9B
:1096B00007D006ABD888103080B20121614B9847A3
:1096C00061E006AB5C8820006A4B9847002810D008
:1096D0005B4B1A7882705B78C37006AB1B89002BDA
:1096E0000BD006ABD888103080B20121554B98477B
:1096F00049E02000604B9847EAE720005F4B98471D
:10970000EFE74F4B19884D4B187802AA5C4B9847EE
:1097100002AB1B88834207D002ABD888103080B2DE
:109720002100484B98475EE002AB5F883800514B00
:109730009847002810D0424B1A7882705B78C3702B
:1097400002AB1B89002B0BD002ABD888103080B243
:1097500021003C4B984746E03800474B9847EAE7E2
:109760003800464B9847EFE706ABDC89364A0C21B8
:10977000122002AB9C466044B847844295D0012138
:109780001020304B98472E4B19883E4B994212D8E7
:1097900006AC307810232200A8472378FF2BE3D1B2
:1097A00006AB1F2102AA944661445A78FF2ADBD1F6
:1097B00001338B42F9D1344B9847002800D05EE743
:1097C000274B324A32492948294CA04702ABDF894E
:1097D0001D4A0E2118001D4B9847874291D0210049
:1097E0001020184B98472B88264A934200D946E709
:1097F00006AA128A14498A4202D000249A4203D847
:1098000002210020C047022431880C4B1878102315
:1098100002AA094FB84702AB1B78FF2BD6D102AB87
:109820000F219C4661445A78FF2ACFD101338B42E5
:10983000F9D124E77002002095870000780200200B
:109840007A020020018A0000FFFF00003D8A00002C
:10985000418D000072020020A98D00004C02002002
:10986000EC090100A40B01002B050000680A0100AF
:10987000BDF40000DD8B00006D8C0000CD8C00007D
:10988000358B0000FF1F0000A98E0000640B010053
:109890003603000010B5084B1B78002B08D0074B8F
:1098A000074A1A61074A5A609A6000221A7310BD6B
:1098B000054B9847F3E7C0464C02002034020020D5
:1098C0001D8D0000581B000059950000F0B5CE46D4
:1098D000474680B587B00400019115001F0000289D
:1098E0000CD0002B0AD0354B9847052300280BD00D
:1098F000180007B00CBC90469946F0BD304B314A79
:1099000031493248324CA0472800103080B2314BE8
:1099100098472000304B9847060003230028E7D0E3
:109920008378C47824021C43A0462C4B187810235B
:1099300002AA21002A4CA04702AB1989019B5A199F
:1099400004238A42D4D802AB6A4692889A80DD808A
:1099500042465A818D422CD002AB9B89013302AA28
:109960009381204B1C88390002A81F4B9847012384
:109970000028BDD0B470240AF47002AB9A89002389
:10998000642AB5D902AB5A88184B1A800022184BAA
:109990001A801848184B984700230028A8D1154B67
:1099A000164A1A61164A5A609A6000221A730023F6
:1099B0009EE7002302AA9381D3E7C046E589000011
:1099C000FC0A0100C80B010096050000680A0100AE
:1099D000BDF4000059910000DD8B000078020020EA
:1099E000958700007A0200200D94000048020020B4
:1099F0004A0200200801002039BD00000194000047
:109A0000B80B0000F0B583B00C0015001E00002854
:109A100009D0002B07D0104B98470323002808D10A
:109A2000180003B0F0BD0D4B0D4A0E490E480F4C07
:109A3000A04762190E4901338A42F1D80D4B1F78B5
:109A400000962B002200010038000B4CA047434237
:109A500043419B00E4E7C046518C0000FC0A010032
:109A6000D80B0100EE050000680A0100BDF40000FB
:109A7000FFFF0000780200207D8A000010B584B04E
:109A8000002805D00A4B9847011E07D104B010BD2D
:109A9000084B094A09490A480A4CA0470A4B18785A
:109AA00010236A46094CA0476B461889EEE7C0466A
:109AB000518C0000F00A0100E80B01000B060000C9
:109AC000680A0100BDF400007802002095870000BC
:109AD000F0B585B004000E001500431E9BB22E4A5F
:109AE00093421ED880231B0199421AD82B4B9847CA
:109AF00000281DD020002A4B9847864207D0294BCA
:109B00001C80294B1E80294B9847031E15D1002D20
:109B100040D02B00320000212000254CA04703003C
:109B20000BE0244B244AAA21C9002448244CA04716
:109B3000244B98470523002802D0180005B0F0BD3B
:109B40003000103080B2204B9847204B1B78072BF9
:109B500019D81F4B1F886B465C8000236A46938090
:109B6000D68016815381938129006846194B984706
:109B700001230028E1D02000174B984787703F0A47
:109B8000C7700223D9E7154B0B4AAF21C9000B4818
:109B90000B4CA0470023D0E7FEEF0000518C0000E3
:109BA0007D9A0000480200204A020020D591000062
:109BB000059A0000B00A0100B40B0100680A010018
:109BC000BDF40000E58900005991000070020020FA
:109BD0007A0200200D9400006D8C0000100A010034
:109BE00010B5034B9847431E9841C0B210BDC04604
:109BF000518C0000F0B5D646474680B587B00F00BF
:109C0000204B984212D0430415D4C308CF18072321
:109C10001840063B83403A7813433B70012301937D
:109C2000019807B00CBC90469A46F0BDFE230B701D
:109C3000FD3B0193F4E704A9134B984701900028DA
:109C4000EED004AB9B889846002BE9D0002402ABF1
:109C50009D1D0E4B9A4607266100049B9C4661445D
:109C600002222800D0472988CA08BA1831400123A7
:109C70008B4011780B4313700134E4B2A3B2434517
:109C8000EAD3CDE70240000081A000007FF500008C
:109C9000F0B5D646474680B589B007A900230B70BA
:109CA000274B9847061E43D00024264F264B9A4642
:109CB000264B984610E0264B264AAB214900264801
:109CC000264CA047264B234A6821FF312248234CCB
:109CD000A0470134082C2BD007AB1B78E340DB07EF
:109CE000F7D5A5B203A92800B84700281FD003ABB9
:109CF0005B88002BDFD0049B002BDCD0059B002B66
:109D000000D098472800D047019003AB049A5988A7
:109D10002800C047022811D00028D3D103AB5A88AD
:109D20000499019B28000F4DA8470028D1D1002697
:109D3000300009B00CBC90469A46F0BD0026F7E70B
:109D4000F59B0000E19F00007D9A0000D19A000081
:109D5000000C0100F80C01003C0C0100BDF40000F7
:109D6000880C01003DA0000010B50549054B98473F
:109D7000041E01D1200010BD0020034B9847F9E7D5
:109D800080020020F59B00008D9F0000F0B585B09B
:109D90003E4B1B780133072213403D4A17783800A9
:109DA0001E003A00DA40D20731D40133DBB2072279
:109DB000072501242B401E000100D9400C4226D16A
:109DC0000133DBB2013AD2B2002AF3D10124E4001C
:109DD000E41820002F4B9847002824D16946200022
:109DE0002D4B9847002838D0029B002B00D0984775
:109DF000019A6B4659882000284B9847FD2318424A
:109E00002BD0274B274AEB212748284CA04701227B
:109E1000B24097431E4A17700021254A11701B4A11
:109E200013700024D3E7694620001B4B9847002895
:109E300013D06B465B88002B15D0019B002B12D0F2
:109E4000029B002B00D09847019B6A465288002154
:109E50002000184CA04700280CD10D4B1B78002B7C
:109E60000FD105B0F0BD144B144A9A2149000E4899
:109E70000E4CA047124B114AA12149000A480B4C35
:109E8000A04700200F4B9847EBE7C0468102002017
:109E900080020020E19B0000E19F0000D19A0000B9
:109EA000880C0100D00C01003C0C0100BDF4000046
:109EB0007C020020CD980000000C0100E80C01009D
:109EC000080D01008D9F0000F0B585B003A90023A7
:109ED0000B700C4B98470190002810D0002403AD64
:109EE0000127094E02E00134082C08D02B78E3400A
:109EF0001F42F8D0A0B2B0470028F4D101900198D9
:109F000005B0F0BDF59B0000E19B000010B5024BD1
:109F10009847024B984710BD458700009598000070
:109F200070B584B00124124E124D09E0124B134A51
:109F300050311348134CA0470134A4B2082C14D05C
:109F400069462000B0470028F6D06B4659880029A2
:109F5000ECD000222000A847FD231842ECD00A4B89
:109F6000064A5B210648074CA04704B070BDC046B6
:109F7000E19F0000D19A0000240D01007C0D01003A
:109F8000380D0100BDF40000880C0100034A0123D4
:109F9000834011780B4313707047C0468202002043
:109FA00070B50D4B1D78002D12D02800EB0710D492
:109FB000002301240133DBB219000200DA4014420D
:109FC000F8D001238B405D40034B1D70034B984735
:109FD00070BD0021F5E7C046820200208D9D000083
:109FE000F0B587B0019102AA104B110070CB70C17F
:109FF0001B680B601388834211D00D4B02AA11001D
:10A000001C00E0CCE0C124680C601188814206D0BD
:10A01000103308498B42F2D1002007B0F0BD102266
:10A0200002A90198044B98470120F6E7006100005F
:10A0300010610000806100007FF5000010B584B061
:10A040009A4208D06946094B9847002803D06B46CE
:10A050001B7BDB0702D5012004B010BD044B054A71
:10A06000BC21FF310448054CA047C046E19F0000D9
:10A070009C0D01008C0D0100C80D0100BDF4000015
:10A0800070B582B00C006B46084A694660CA60C170
:10A09000DA880023824202D0180002B070BD082284
:10A0A00069462000024B98470123F5E760610000F4
:10A0B0007FF50000024B18700122024B1A707047A6
:10A0C0006C1C00208302002010B50278084B1A7027
:10A0D00042785A700A78074C22704A786270188861
:10A0E000054B98472088054B9847012010BDC04676
:10A0F0005C1C0020741C0020C9AA0000A9AA000052
:10A1000010B5002809D10B781A2B07D8044A137010
:10A110001800044B9847012000E0002010BDC04605
:10A12000761C002021AB000030B583B06C46009057
:10A1300001910E4B98470E4D2B0006CC06C30D4BDC
:10A140009847040001200C4B98470C4B1C70686822
:10A150000B4B98470B4B00221A7080215A548031C8
:10A160005A5480315A54012003B030BDD9A900009F
:10A17000641C00204DAB000095AA0000D81B0020F5
:10A18000C1AB0000941C0020F0B5DE4657464E4699
:10A190004546E0B58DB005900E000691111C1400E7
:10A1A000240A0792019316AA157817AA1378039325
:10A1B000C3B29806C20F0292C9B2E2B25C0700D5E0
:10A1C000012108241C40674267417C42224003244D
:10A1D0001C40012C3AD0674267416846C774FFB201
:10A1E000BA4605AF7F89B8467C4F3F88474530D097
:10A1F0000027B8460737BB468946594608314F46BF
:10A20000002F00D00639002A36D00231C9B22427E7
:10A210001F40202F33D0032C35D0714C49192170A9
:10A220005346637005AC029B580121782023994363
:10A2300008432070C1438B072CD04B46002B4AD0DB
:10A24000002A31D0882466498C7030E00327BA4652
:10A25000C7E7644FB8450AD04027B846574640463E
:10A260000743BA463F38804604308346C4E700209F
:10A27000804607308346BFE70831C9B2C7E7534677
:10A280003B439A46C7E701220023029398469A4629
:10A290000721C2E7524980208870534C2078461C21
:10A2A0002670C87004212CE0C8244D498C704E4C97
:10A2B00021784B1C23704A4CE17005A98B7A2371DD
:10A2C000C97A6171430717D430784549887170782D
:10A2D000C871082115E0002A63D0414C8C21A1707F
:10A2E000414B19784F1C1F70E17005A98B7A2371BF
:10A2F000C97A6171430767D53949FF208871C871F0
:10A3000008214346002B09D1481CC0B2344C334EBF
:10A31000337863540231C9B276782654002A31D09A
:10A320002F48324C227842548A1CD2B20131C9B231
:10A3300064784454002D0AD001995519EDB2284E85
:10A34000501C0C78B4540131C2B29542F8D1284A5D
:10A35000019B1360274B189A1A60274B6A46127BA1
:10A360001A7009A800230370244B83601C4B4360C0
:10A37000234B984701200DB03CBC90469946A2461D
:10A38000AB46F0BD1F4A50680E000836F6B2144BBB
:10A390004A1CD2B204785C5401301100B242F7D1A9
:10A3A000C8E70F4CCC21A1700F4B9C4619784B1C71
:10A3B000994663464F461F70E17005A98B7A237159
:10A3C000C97A6171430797D40020054B345CC118EA
:10A3D0008C7101300828F9D10E2192E7741C0020FD
:10A3E000DC1B0020FFFF0000D81B00205C1C0020AD
:10A3F0008C0200208402002088020020B5A000000A
:10A40000FDA80000641C0020044B1B78032B03D81C
:10A41000DB010021024A99547047C0460A0000201F
:10A42000941C002070B5FF22D24B1A70D24B1B78BF
:10A43000002B00D099E18033CF4AD35C002B0DD1A3
:10A440000133FF33D35C002B30D18133FF33D35C36
:10A450000020002B00D170BD032300E00123C54A7A
:10A4600013700020032BF6D81900D801C24A121825
:10A47000557840242540C14800240470C473013C31
:10A480000482927833208243D0B2882800D1B8E089
:10A490000ED9D0B2C82843D0CC2800D181E08C2876
:10A4A00000D1F1E0B64B98470020D4E70223D6E76D
:10A4B000082A00D119E18028F4D1B04A1078042488
:10A4C000204380246442204310700120D073AA48A6
:10A4D000D90144182579157464795474DB019C1DE5
:10A4E00024185460095C0B39117308331B189360EE
:10A4F000A04B1B78D901A04A521851780A0700D501
:10A500000FE107220A40012A00D10EE1002A00D102
:10A5100025E1032A00D11AE1994B984700209AE7D8
:10A52000D801954A12189279FF2A1BD093480478D3
:10A530008022524222430270002D1ED002008E481B
:10A54000C90144182579157464795474DB011C0021
:10A55000083424185460095C1339117310331B1824
:10A560009360C5E7844A1218D279FF2ADED1834866
:10A570000278042422430270D8E7804A7E48C90149
:10A580004418257A1574647A5474DB011C000A346B
:10A5900024185460095C1539117312331B18936029
:10A5A000A6E7764804788022524222430270002DAA
:10A5B00013D002007048D9014418257915746479C4
:10A5C0005474DB011C000E3424185460095C1939E2
:10A5D000117316331B1893608AE7684A6648D901DD
:10A5E0004418A57B1574E47B5474DB011C00103403
:10A5F00024185460095C1B39117318331B189360BD
:10A6000076E7D8015C4A12189279FF2A1CD05B4A7F
:10A61000147880204042204310700120D073002D18
:10A620001ED15548C9014418257A1574647A5474AA
:10A63000DB011C000A3424185460095C0F391173C3
:10A640000C331B18936053E7D8014B4A1218D27988
:10A65000FF2ADCD149480278042422430270D6E75D
:10A66000464A4548C90144182579157464795474DB
:10A67000DB011C00083424185460095C0D39117387
:10A680000A331B18936033E73C4A14788020404219
:10A69000204310700120D073002D12D03648D9010C
:10A6A00044182579157464795474DB011C000D3449
:10A6B00024185460095C1339117310331B1893600C
:10A6C00016E72E4A2C48D9014418657B1574A47BE3
:10A6D0005474DB011C000F3424185460095C1539D4
:10A6E000117312331B18936002E7D801224A121823
:10A6F0009279FF2A0AD021481F4CC9010A5D0A3A03
:10A700000273DB0108331B198360F1E61A4A121841
:10A71000D279FF2AEFD1194802780424224302702B
:10A72000E9E7174B9847002095E614490A7803207B
:10A7300082430A70104ADB01985C1049D3181A183A
:10A74000013A12788A731B5C4B73012083E60B4934
:10A750000A7803208243012002430A70EAE707498E
:10A760000A78032002430A70E4E70022014B1A70C2
:10A77000002379E60A000020941C0020B41E00206B
:10A7800009A400000200054B1B780001002B00D03B
:10A79000704790008018C000FAE7C0460D00002006
:10A7A00010B50B4B98470B4B1B68002B03D00A4A84
:10A7B0001278002A00D110BD084A126808490978A9
:10A7C0000848007898470022034B1A70F3E7C04608
:10A7D000E1AB000084020020830200208C020020F4
:10A7E0006C1C002088020020074B1878030703D454
:10A7F0004007C00F64387047142318401438434290
:10A8000058416238F7E7C0469202002010B5134B5A
:10A810001B78002B10D10022114B1A70114C21789B
:10A820001420114B98472378002B09D00B4B197833
:10A8300013200D4B984710BD1C22094B1A70EDE7F1
:10A8400008200A4B98471F2301009943034B1878AF
:10A850000143C9B20820044B9847ECE7910200205D
:10A86000920200209002002045C4000049C300006D
:10A87000F8B504000F4B1B78022B16D00E4F0F4E6D
:10A880001F2503210220B8470120B047284008288F
:10A89000F7D1094F094E1F2521000220B84701209A
:10A8A000B04728408442F7D1F8BD80225203044BC0
:10A8B0005A61E3E71503002045C4000049C30000C6
:10A8C0000028004010B50820084B98470F20084B7F
:10A8D0009847084B1B78002B00D110BD1620034B66
:10A8E00098470122044B1A70F7E7C04671A8000090
:10A8F00049C30000140300201503002070B50500B3
:10A900001020094B9847041E09D004300C2229005E
:10A91000064B984721000648064B984770BDAB6828
:10A9200001209847FAE7C046E1B900007FF5000032
:10A93000881C0020BDBB000010B51E4B1B7A002BED
:10A9400004D01D4B1B78013B012B00D910BD002109
:10A9500018481A4B9847041EF8D083681B787F2B41
:10A9600023D81920164B98470F20164B9847A268FA
:10A97000137802331370A36819780139C9B218002B
:10A98000114B984703220C4B1A70104B8022520334
:10A990009A61C046C0465A610D4B22791A70E2682E
:10A9A0009A6020000B4B9847D0E7C3680120984776
:10A9B000CCE7C046881C002015030020F5BB000032
:10A9C00071A8000049C3000075C6000000280040BF
:10A9D000781C00209DBA000070B5244B9847244B8A
:10A9E00098470023234A1370234A13700C20234BEB
:10A9F00098473F231840224B18700122214B1A70B0
:10AA0000214E1E4D1F2408210220B0470120A847D7
:10AA100020400828F7D12E2104381B4CA0471720CE
:10AA2000164DA84740210143C9B2184B1970172091
:10AA3000A0472C20A8470F2101400E200143144EAF
:10AA400031701E30A0472C20A84730709E210C206A
:10AA5000A04702211620A047C1210520A0470C20B5
:10AA6000A8473F231840064B187070BDF9C100007D
:10AA700019C30000140300209002002049C3000005
:10AA8000920200201503002045C40000941E0020FF
:10AA9000841C002010B5024B1870024B984710BD63
:10AAA00014030020C5A8000030B583B06B469D1D7F
:10AAB000D880C1B22220034CA04769782320A04748
:10AAC00003B030BD45C4000070B582B06B469E1D1A
:10AAD000D880C4B221002020054DA84776783100E7
:10AAE0002120A847A419E1B22D20A84702B070BDCB
:10AAF00045C4000010B5074B1B78022B00D010BDD9
:10AB000080225203044B5A61044B98470122014BA7
:10AB10001A70F4E71503002000280040C5A80000C3
:10AB200010B5064B1870064B1B78022B02D0054B54
:10AB3000984710BD044B9847F9E7C04691020020A2
:10AB4000150300200DA80000F5AA0000F0B5C646C8
:10AB500000B582B01520154B9847019080214942DD
:10AB60000143C9B21520124B98470620114B984754
:10AB700000250024104B98460C4F03260120C047A7
:10AB80000620B84740093040A8400443A4B202352B
:10AB9000102DF3D1094B984701991520044B984784
:10ABA000200002B004BC9046F0BDC04649C300007E
:10ABB00045C4000071A8000009620000C5A800009B
:10ABC00070B505002424054E29782000B0470135D2
:10ABD0000134E4B22C2CF7D170BDC04645C400004E
:10ABE000F0B585B0404B9847404B1B78022B0AD0FC
:10ABF0000F203F4B9847030705D53C4B1B78012B93
:10AC000003D0032B54D005B0F0BD3A4B1D78002D76
:10AC100011D08023374AD35C002B0BD080235B00FC
:10AC2000D35C002B42D0C0235B00D35C0325002BF8
:10AC3000E9D100E0012507202D4B9847019002AB98
:10AC4000DE1D012130002C4B984731784BB2002B90
:10AC500024DB0231C9B22948274B98472F0002ABA9
:10AC6000D879861CF6B2ED01224BEE547E2E15D813
:10AC700002300122012329001E4D6D181F4CA15CDA
:10AC8000A9540133DBB21A009842F8DA1C4B9847FA
:10AC9000FF01184BDF19019B1C18BC55144D1F24D4
:10ACA0000120A84720401628FAD1ACE70225C2E7C8
:10ACB00002200F4B98474009C0B2002804D0032857
:10ACC0000DD005280DD001200E4CA3689847002315
:10ACD000A3600D4B98470122044B1A7093E70220A2
:10ACE000F2E70320F0E7C04639A900001503002071
:10ACF00049C30000941C002045C5000094020020B8
:10AD0000E9A70000781C0020C5A8000010B51000BD
:10AD1000014B984710BDC0469DBA000010B50124F4
:10AD2000084B1C70084B1B681B69002B05D098470B
:10AD3000054B1868054B984710BD1000034B98470A
:10AD4000F6E7C046180000202C1F00209DBA000026
:10AD500010B51000014B984710BDC0469DBA0000C9
:10AD6000F8B505000E00170000210948094B984767
:10AD7000041E0CD04368002B06D0827C012A03D02D
:10AD80003A003100280098472000034B9847F8BD4F
:10AD90009C1E0020F5BB00009DBA000070B50D00A0
:10ADA0000024002801D0200070BD054B9847041EE8
:10ADB000F9D02A78034B1A700420034B9847F2E726
:10ADC00001A100000D000020699D0000F0B585B0D4
:10ADD0000500012252420E236B441A8000233C4A94
:10ADE00013703C4A10603C4A11603C4A1380037B5C
:10ADF000002B4CD101223A4B1A703A4A374B1A8039
:10AE000000240026384F2B681B191E722B68181956
:10AE100008223100B8470A34322CF4D1002401AAA8
:10AE2000137802210B4387210B4040210B43DBB2F7
:10AE300004210B43C6210B40137001982B492C4B66
:10AE400098472C4B1B78FF2B03D02A4900202A4B14
:10AE5000984722490E206844284B9847284A294B96
:10AE60001B781B0111780B4313702748FA239B00B2
:10AE7000836001230373254B0361254B98472548C5
:10AE8000254DA8472548A847200005B0F0BD244817
:10AE9000244B9847002804D02148234B984700288A
:10AEA00001D1224B98470D4B1B88013B9BB2204A96
:10AEB00093429FD807220A4B1A701E4B1B68002B27
:10AEC00003D0002098470F24A9E70F24A7E7C04626
:10AED000EC1E0020C81E0020CC1E0020D81E002022
:10AEE000200300203412000091F500001000002023
:10AEF00029A100000D0000209DAD0000C9A00000A8
:10AF00000C0000200B000020280300204DB300009F
:10AF100065BD00009C1E0020B1BB0000A81E0020E3
:10AF200001400000C99E0000919C0000219F00008C
:10AF3000FDFF0000D41E002010B5032800D910BD6D
:10AF4000064B1870064A11780F230B400001184376
:10AF500010700520034B9847F1E7C0460B00002016
:10AF60000C000020699D000030B583B015001C0066
:10AF7000284B1B78042293430022012B02D010009F
:10AF800003B030BD0232234B1A70012836D000289E
:10AF900008D0022836D00120A04701221D4B1A708C
:10AFA0000022ECE700226B465A716B46981D012384
:10AFB0005B4203801849194B0B80194B9847EB07EC
:10AFC0000DD46B4659790131C9B2012200E0190054
:10AFD00052004B1CDBB22A42F9D06B4659716B46CA
:10AFE000591D00200F4B984707220A4B1A700E4834
:10AFF0000E4B98470020A0470122C0E70120A04740
:10B000000022BCE70120A0470122024B1A70002257
:10B01000B5E7C04620030020D81E002034120000EF
:10B02000C9A000009DAD000001400000699D000026
:10B03000002803D0024B1860012070470020FCE775
:10B0400024030020084B1B681B68190032310020C4
:10B0500002E00A338B4205D01A7A7F2AF9D90130EF
:10B06000C0B2F6E77047C046C81E002010B502788F
:10B070000B789A4209D10123C45CCA5C944206D180
:10B080000133082BF8D1012010BD0020FCE700207F
:10B09000FAE7FFFFF0B5C64600B582B00190304B2D
:10B0A0005E68304B1B681D68FF2700240AE02900FA
:10B0B00030002D4B9847002848D10134E4B20A35BE
:10B0C000052C06D02B7A7F2BF1D8FF2FF5D1270046
:10B0D000F3E70024FF2F3CD0244B1B78002B39D101
:10B0E000234B1F70BB00DB195B0098461E0000233A
:10B0F0001B4D1C486A68D15C02681268D2189155D1
:10B100000133082BF6D1174B1A6813684344187A99
:10B110008021494201431972136843440121019877
:10B1200001401E7A012086430E431E720C4B9B6821
:10B13000D9781368434459720E4B1F700E4B9847D1
:10B140000E4B187007200E4B984703E02700012490
:10B15000C0E7F124200002B004BC9046F0BDC04618
:10B160001C1F0020C81E00206DB000000B00002036
:10B17000E81E0020981E002045B0000016030020A5
:10B18000699D0000F0B5DE4657464E464546E0B59F
:10B1900083B005006846C18017009A460CAB1E7844
:10B1A0000DAB1B7898460FAB1B78994610AB1B78FC
:10B1B0009B462820304B9847041E5BD00323524601
:10B1C000134003760023002D00D15B46012213407B
:10B1D0005B019C46237E20218A468B431000284039
:10B1E000800061460B4304218B431640F600034365
:10B1F0000820834300211930215451466554012110
:10B200004D402A4092011E4340239E4332438026F4
:10B21000764232432276E7616B46DB886384002FF7
:10B2200008D0D3B25B071ED42000083008223900B2
:10B23000124B98470E9B636123000833E361119B17
:10B24000236125234A46E254013B4246E254210051
:10B250000B480C4B9847012003B03CBC90469946E4
:10B26000A246AB46F0BD2000083002223900034B55
:10B270009847DFE70020EFE7E1B900007FF5000025
:10B28000DC1E0020BDBB000010B586B0264BDB786D
:10B29000002B11D1244B5878062801D0002836D134
:10B2A0000722224B1A70204BDB68984700221E4B66
:10B2B000DA60042006B010BD1C4B1B78042BE9D1CA
:10B2C00005201B4B9847002829D081230370194B78
:10B2D0001B784370184B1B788370184B1B689B6856
:10B2E0001B78C370164B1988164B059301230493E2
:10B2F0000023039302900422019200930133002261
:10B300000120114CA04700280BD10A30D2E7064B90
:10B310009978064A1170DB6801209847C6E70A2031
:10B32000C8E70020C6E7C046F01E0020200300202A
:10B33000E1B900000D0000200C000020C81E002014
:10B34000D81E002075B3000085B1000010B5074B72
:10B350001B88002B05D0013B9BB2044A1380002BB5
:10B3600000D010BD024B9847FBE7C04618030020F1
:10B3700089B2000010B50C001000074B9847074A2F
:10B38000D378013BD370002C03D10222044B1A80E6
:10B3900010BD044B9847FBE79DBA0000F01E00204B
:10B3A0001803002089B2000070B582B016006B4609
:10B3B000D871114B1D780020002D01D102B070BD55
:10B3C00000220E4B1A700E4C069BE3602170201D6C
:10B3D0000A0031000B4B9847A57008236370053BAA
:10B3E000E3700422044B1A706B46D91D0020064BF3
:10B3F0009847064B9847E1E7200300200B00002008
:10B40000F01E00207FF500009DAD000089B2000015
:10B41000F0B5DE4657464E46C0B588B006911400DA
:10B42000079310AB1F7811AB1E78394B1A780123A4
:10B43000072A06D0180008B01CBC91469A46A346BD
:10B44000F0BD632CF6D802282ED08020314B9847CF
:10B45000051E5BD0129B43600830082206992E4BD4
:10B460009B4698472F756C75002399462B746E7414
:10B4700016239A46AA44220007995046D847274BDC
:10B480001988274B0593049603975346029301941A
:10B490004B460093069A0020224CA04729002248E0
:10B4A000224B98470123C5E74A7812020B789B1874
:10B4B0009BB21F4A9342C8D17E30164B9847051E57
:10B4C00022D0129B4360077544750026067416232C
:10B4D000994681442200079948460F4B98470F4BE5
:10B4E00019880F4B0593049603974B4602930194DA
:10B4F00000960023069A01200A4CA04729000A481A
:10B500000A4B9847012395E7002393E7002391E72F
:10B5100020030020E1B900007FF50000D81E0020C4
:10B5200061AD000085B100009C1E0020BDBB000085
:10B53000FFFF0000F0B58BB0C84B98470400C84B24
:10B540001B7A002B03D0C74B1B78002B09D1C64BAD
:10B550009847002835D1C54B9847C54B98470BB045
:10B56000F0BDC44B1968C44B9847C44B1B68984244
:10B57000EDD90021BA48C24B9847051EE7D0C14B10
:10B5800018602423C35C1C332820122B00DC1C38D9
:10B590002030BD4B9847B94B1860B64B1C606B69A7
:10B5A000BA4A02922522AA5C01922422AA5C009245
:10B5B000A869E9692A6AB64CA0470022A94B1A700B
:10B5C000C5E7B44B19784A07CC0801200440E400D1
:10B5D000D20F03230B40013B5E425E413300034028
:10B5E0005B012243CC092040800113430343AA4A54
:10B5F000137049B2002919DBA64A148AA64B5C8055
:10B60000107B187391689960957B9D73527B5A7378
:10B610001B789B0600D49DE10B787F33DAB2162AA3
:10B6200000D99BE193009D4AD3589F46994B5A6895
:10B63000994B5A60E0E79A4B1B78012B00D98DE1BA
:10B640004A78984B1B789A4200D087E1964B9C42EF
:10B6500006D0964B1B88A34202D0022800D985E170
:10B660008878934B984704008D4B1B78012B25D08D
:10B670006320904B9847002800D16FE1912303701D
:10B6800044700225012C3AD9834B5A6859888A4E56
:10B6900005960126049600260396029001951B78D4
:10B6A0001B07DB0F009301230020844DA847002CCB
:10B6B00000D053E10620824B98474FE10138C0B2D9
:10B6C0000128D5D963207B4B9847021E00D145E164
:10B6D00091231370623353706F49774B05930123A5
:10B6E0000493002003900292022201920A7812072A
:10B6F000D20F00924A684988704CA0472EE1714BE6
:10B700001B788370704B1B689B681B78C370023575
:10B71000BAE76E4B1B78042B00D01FE14B78012B4E
:10B7200000D91BE1614B1A885F4B9A4213D05A4BE8
:10B730009B685A78012A1DD0002A1FD10021644A33
:10B7400051700021624AD1709878594B98476148EE
:10B750005B4B984702E11E2002AB9C4660440123EC
:10B760005B42038051490C805B4B98470220544B4D
:10B770009847DCE70621564A5170E2E70121544A16
:10B780005170DEE7464B1B78022B00D9E6E04A7881
:10B79000444B1B789A4200D0E0E00320454B984789
:10B7A000002800D1DAE097230370464B1B784370E2
:10B7B000454B1B689B681B788370374B5A685988C8
:10B7C000464C059401240494002403940290032021
:10B7D00001901B781B07DB0F009301230020374CDF
:10B7E000A047BBE0394B1B78092B00D0B6E03C4C9E
:10B7F000002565700722354B1A702A4B18780021F6
:10B80000E3689847E560A9E002202A4B9847071EA5
:10B8100000D1A3E0922303701F4B5E682A4B1B6884
:10B820001D68002404E00134E4B20A35052C5BD025
:10B8300007952B7A7F2BF6D929003000294B9847A2
:10B840000028F0D00025079B1D7206201C4B98474E
:10B850007D70052C5FD002244AE0C04611BE000076
:10B86000DC1E00201800002025A40000A1A7000075
:10B8700085BD00001C03002061BE00003C030020C9
:10B88000F5BB00002C1F002085A700001DAD0000A7
:10B8900089A10000B41E00201C1F0020240E0100FE
:10B8A0000B0000200D000020FFFF0000D81E00202C
:10B8B00095B00000E1B9000051AD000085B1000075
:10B8C000699D00000C000020C81E002020030020FD
:10B8D000F01E002001400000C9A000000DAD0000D6
:10B8E0000C1F00206DB0000001235C1CF022FA54F4
:10B8F000224B5A6859882248059001200490002064
:10B900000390029701941B781B07DB0F0093012320
:10B910001C4CA04722E00223E7E74B78002B1DD107
:10B92000194B1B681D68154B5F682C00323502E00F
:10B930000A34A54212D0237A7F2BF9D9210038008E
:10B94000124B98470028F3D0002323720620104B97
:10B95000984703E00F4B1B78072B02D00E4B9847FC
:10B96000F9E50E4B1B6805489847F7E70C4B1B7829
:10B97000012B00D1A6E6F2247AE6C0461C1F002067
:10B980000DAD000085B10000C81E00206DB00000A4
:10B99000699D00002003002009A40000240300206A
:10B9A0000B00002010B50B4A501E0324A043011DBC
:10B9B000094B19605342A343C0246401A446624466
:10B9C0009B18064A1360C36001230374002343607D
:10B9D000836010BD4403002040030020441B00206E
:10B9E00070B50500294B1B68002B12D0002D47D0E5
:10B9F00029000F31032399430431254B18688142F4
:10BA000040D8224B1B68002B3ED000260124644204
:10BA100005E0204B9847E9E71B68002B0AD01A7B0A
:10BA2000002AF9D09A689142F6D8A242F4D21E00B8
:10BA30001400F1E70024002E12D0B3685B1A142B17
:10BA400010D800233373B368C01A114B1860340048
:10BA50001034002C04D02A00002120000E4B9847FF
:10BA6000200070BD721893603368002B00D05A60BC
:10BA7000336813605660012313733260B160E0E7EE
:10BA80000024EDE70024EBE70024E9E74003002071
:10BA9000441B0020A5B9000091F500001C4B1B6859
:10BAA0001038002B30D083422FD01B68002B2BD0B6
:10BAB0009842FAD1012303738168164A13685B1810
:10BAC00013604368002B0FD01A7B002A0CD09A68B1
:10BAD0009446614499600368002B01D042685A6023
:10BAE000436802681A6040680368002B0CD01A7B18
